:100000000C942F060C94B7060C9490060C9457068B
:100010000C9457060C9457060C9457060C945706EC
:100020000C9457060C9457060C9457060C945706DC
:100030000C9457060C94030B0C9457060C9457061B
:100040000C94040E0C9457060C9404070C94DE06D2
:100050000C9457060C9457060C9457060C945706AC
:100060000C94D5090C945706008A00868482838DEF
:10007000008B898785096000000000000071310055
:1000800000007A736177320000637864653433006E
:100090000020766674723500006E626867793600FB
:1000A00000006D6A75373800002C6B696F303900BD
:1000B000002E2F6C3B702D00000027005B3D0000E0
:1000C00000000D5D005C00000000000000007F00EB
:1000D0000031003437000000302E323536381B0036
:1000E0008C2B332D2A398E00000000880000000080
:1000F000008A00868482838D008B898785097E0033
:10010000000000000051210000005A5341574000F8
:1001100000435844452423000020564654522500ED
:10012000004E424847595E0000004D4A55262A00BD
:10013000003C4B494F292800003E3F4C3A505F009D
:10014000000022007B2B000000000D7D007C0000E1
:100150000000000000007F00003100343700000084
:10016000302E323536381B008C2B332D2A398E0039
:1001700000000088000000000000000000000000F7
:10018000000000000000000000000000000000006F
:10019000000000000000000000000000000000005F
:1001A000000000000000000000000000000000004F
:1001B000000000000000000000000000000000003F
:1001C000000000000000000000000000000000002F
:1001D000000000000000000000000000000000001F
:1001E000000000000000000000000000000000000F
:1001F00000000000000000000000000000000000FF
:1002000000000000000000000000000000000000EE
:1002100000000000000000000000000000000000DE
:1002200000000000000000000000000000000000CE
:1002300000000000000000000000000000000000BE
:1002400000000000000000000000000000000000AE
:10025000000000000000000000000000000000009E
:10026000000000000000000000000000000000008E
:10027000000000000000000000000000000000007E
:10028000000000000000000000000000000000006E
:10029000000000000000000000000000000000005E
:1002A00000000000000000005F00000003000300E9
:1002B000147F147F14242A7F2A12231308646236C1
:1002C000495522500005030000001C224100004156
:1002D000221C0014083E081408083E0808000050BC
:1002E00030000808080808000060600020100804BA
:1002F000023E4141413E00427F4000724949494629
:100300004141454B311814127F1027454545393E70
:1003100049494930010179050336494949360649B9
:1003200049493E00003636000000563600081422C7
:10033000410014141414140041221408020151093C
:1003400006324979413E7E0909097E7F494949368D
:100350003E414141227F4141413E7F494949417FE0
:10036000090909013E4149493A7F0808087F000010
:100370007F00002040413F017F081422417F404020
:1003800040407F0204027F7F0408107F3E414141CC
:100390003E7F090909063E4151215E7F0919294620
:1003A000464949493101017F01013F4040403F1F1B
:1003B0002040201F3F4020403F631408146307087B
:1003C0007008076151494543007F4141000204081C
:1003D00010200041417F00040201020440404040DF
:1003E00040000001020020545454787F48444438AF
:1003F0003844444420384444487F38545454180402
:100400007E05010208545454387F08040478000023
:100410007D00000020403D007F1028440000417F07
:1004200040007C047804787C080404783844444410
:10043000387C14141408081414147C7C0804040870
:100440004854545420043F4440003C4040207C1C0D
:100450002040201C3C4030403C44281028440C5094
:1004600050503C4464544C44000836410000007F26
:1004700000000041360800100808100800000000C5
:10048000000000000000000000000000000000006C
:10049000000000000000000000000000000000005C
:1004A000000000000000000000000000000000004C
:1004B000000000000000000000000000000000003C
:1004C000000000000000000000000000000000002C
:1004D000000000000000000000000000000000001C
:1004E000000000000000000000000000000000000C
:1004F00000000000000000000000000000000000FC
:1005000000000000000000000000000000000000EB
:1005100000000000000000000000000000000000DB
:1005200000000000000000007D00001C227F22145B
:10053000483E492140221C141C22292A7C2A2900D9
:1005400000770000204A55290200010001007F4188
:100550005D5D7F485555555E08142A142208080829
:10056000083800000201007F4165517F010101014F
:1005700001060909060044445F444412191512009B
:1005800015151F000000000201007F1010081F0653
:1005900009097F7F00001818000000402000121F8A
:1005A0001000004E5151514E22142A1408170814FD
:1005B0001A7D170864565D151F2030783048454075
:1005C000207815161478781416157878151515787E
:1005D0007915151579781514157878161516787C0F
:1005E000127F49490C527212087C555654447C546F
:1005F0005456457C555555447C5554554400457ECC
:10060000440000447E450000457D450000457C4592
:1006100000087F49413E7D0911217D384546443817
:1006200038444645383845454538394545453938D3
:100630004544453822140814221C623E231C3C41C8
:1006400042403C3C4042413C3C4141413C3C4140B9
:10065000413C0408720904007F12120C007E21251F
:100660001A205556547820545655782055555578AB
:100670002155555579205554557820565556783280
:100680004A3C4A2C0C5272120838555654183854A9
:100690005655183855555518385554551800497A37
:1006A000400000487A4100004A794200004A7842FE
:1006B0000025525558307D0905057930494A4830A2
:1006C00030484A4930304A494A303249494A313043
:1006D0004A484A3008082A08081C623E231C384150
:1006E00042207838404221783842412278384240CE
:1006F00022781C5052513C00417F54080C515051FB
:100700003C000000000000000000000000000000AD
:1007100000000000000000000000000000000000D9
:1007200000000000000000000000000000000000C9
:100730000000000000000000000000000015167C12
:10074000161500000000000000000000000000007E
:100750000000000000000000000000000000000099
:100760000000000000000000000000000000000089
:100770000000000000000000000000000000000079
:100780000000000000000000000000000000000069
:100790000000000000000000000000000000000059
:1007A000000000000000705070000000000F010108
:1007B0004040780000102040000000181800000A97
:1007C0000A4A2A1E044434140C2010780400180825
:1007D0004C483848487848484828187C08087C081D
:1007E000281840484878405454547C001800584019
:1007F00038080808080801413D090710087C020173
:100800000E0243221E42427E424222120A7F0242CE
:100810003F02423E0A0A7F0A0A084642221E040399
:10082000423E02424242427E024F221F024A4A4058
:10083000201C4222122A46023F424A4606484020D5
:100840001E08464A321E0A4A3E09080E004E201E65
:1008500004453D0504007F08100044241F040440A3
:1008600042424240422A122A0622127B16220040AD
:10087000201F0078000204783F444444440242426E
:10088000221E040204083032027F02320212225277
:100890000E002A2A2A4038242220704028102806D8
:1008A0000A3E4A4A4A047F04140C4041417F404AB0
:1008B0004A4A4A7E040545251C0F40201F007C0043
:1008C0007E40307F402010087E4242427E0E02422F
:1008D000221E4242402018020401020007050700C0
:1008E000001C22241826205554557800FE4949360C
:1008F0002854544420FC2020107C38444C5424F0CC
:10090000282424380C9292927E10201E02020404A5
:10091000000E004080847D0005020500001C227F3F
:100920002210147F5440407C090505783845444521
:1009300038FE2422221C1C222224FE3C4A4A4A3C25
:10094000181408140C58640464583C4140217C631A
:1009500055494141443C047C4445291129451EA088
:10096000A0A07E14147C1412443C1414747C141C37
:10097000147C08082A08080000000000000000009D
:100980000000000000000000000000000000000067
:100990000000000000000000000000000000000057
:1009A0000000000000000000000000000000000047
:1009B0000000000000000000000000000000000037
:1009C0000000000000000000000000000000000027
:1009D0000000000000000000000000000000000017
:1009E0000000000000000000000000000000000007
:1009F00000000000000000000000000000000000F7
:100A000000000000000000000000000000000000E6
:100A100000000000000000000000000000000000D6
:100A200000000000000000000000000000000000C6
:100A30000000000000221C141C2200000000000026
:100A400000770000465D555D317C555455440000EB
:100A5000000000000000000008142208140000003C
:100A60000000000000000000000000000000000086
:100A700000060909060044445F44440000000000E9
:100A800000000000000000000000403C101C20445A
:100A90003C047C44000008000038555455187E087A
:100AA000107F01000000000014082214080000005C
:100AB0000000000000000000000000000000000036
:100AC000007E1111117E7F494949317F49494936DC
:100AD0007F01010103603F213F607F494949417720
:100AE000087F087741494949367F1008047F7C21F7
:100AF00012097C7F08142241403E01017F7F020CD5
:100B0000027F7F0808087F3E4141413E7F0101018D
:100B10007F7F090909063E4141412201017F010110
:100B2000074848483F0E117F110E63140814633FB5
:100B300020203F60070808087F7F407F407F3F20DC
:100B40003F207F017F4848307F4848307F7F4848BA
:100B50004830224149493E7F083E413E4629190915
:100B60007F20545454783C4A4A49317C5454542888
:100B70007C0404040C6038243C6038545454186CD1
:100B8000107C106C44545454287C2010087C7C4009
:100B900026107C7C10102844403804047C7C08100B
:100BA000087C7C1010107C38444444387C040404D5
:100BB0007C7C14141408384444444804047C040421
:100BC0000C5050503C08147C140844281028443C15
:100BD00020203C600C1010107C7C407C407C3C2031
:100BE0003C207C047C5050207C5050207C7C505019
:100BF000502028445454387C103844384834141455
:100C00007C000000002300260029000000000024D2
:100C10000027002A0000000000250028002B000407
:100C20000404040404040402020202020203030393
:100C3000030303010204081020408001020408108D
:100C4000200102040810200000000800020100003A
:100C50000304070000000000000000003C12112403
:100C60001FBECFEFD8E0DEBFCDBF11E0A0E0B1E006
:100C7000E2E2F5E202C005900D92AA36B107D9F77B
:100C800023E0AAE6B1E001C01D92A637B207E1F762
:100C900016E0CFE2D6E004C02197FE010E94841244
:100CA000CE32D107C9F70E944E0E0C948F120C94CD
:100CB00000000895CF92DF92EF92FF920F931F935F
:100CC000CF93DF936C017A018B01C0E0D0E0CE15A9
:100CD000DF0581F0D8016D918D01D601ED91FC9178
:100CE0000190F081E02DC6010995892B11F0219624
:100CF000EECF7E01C701DF91CF911F910F91FF9041
:100D0000EF90DF90CF90089588EC92E00E94670703
:100D100021E0892B09F420E0822F08950E948A1295
:100D20001F920F920FB60F9211242F933F934F9360
:100D30005F936F937F938F939F93AF93BF93EF9343
:100D4000FF93E0910201F09103010995FF91EF916A
:100D5000BF91AF919F918F917F916F915F914F91D3
:100D60003F912F910F900FBE0F901F9018951F92DB
:100D70000F920FB60F9211242F933F934F935F93CF
:100D80006F937F938F939F93AF93BF93EF93FF9353
:100D9000E0910001F09101010995FF91EF91BF9160
:100DA000AF919F918F917F916F915F914F913F9103
:100DB0002F910F900FBE0F901F9018951F920F92BA
:100DC0000FB60F9211242F933F934F935F936F931E
:100DD0007F938F939F93AF93BF93EF93FF9388EC91
:100DE00092E00E94CB08FF91EF91BF91AF919F914C
:100DF0008F917F916F915F914F913F912F910F90C4
:100E00000FBE0F901F9018951F920F920FB60F9262
:100E100011242F938F939F93EF93FF93E091D80228
:100E2000F091D9028081E091DE02F091DF0282FD33
:100E300012C090818091E1028F5F8F732091E20256
:100E4000821751F0E091E102F0E0E853FD4F958FF9
:100E50008093E10201C08081FF91EF919F918F917A
:100E60002F910F900FBE0F901F901895FC01538D7E
:100E7000448D252F30E0842F90E0821B930B541774
:100E800010F0CF96089501970895FC01918D828D01
:100E9000981761F0828DDF01A80FB11D5D968C91CE
:100EA000928D9F5F9F73928F90E008958FEF9FEFD9
:100EB0000895FC01918D828D981731F0828DE80F95
:100EC000F11D858D90E008958FEF9FEF0895FC014F
:100ED000918D228D892F90E0805C9F4F821B91091C
:100EE0008F739927089580E090E0892B29F00E9464
:100EF000840681110C940000089585ED8093BC0058
:100F00008091BC0084FDFCCF1092A3020895409113
:100F10002102262F30E0240F311D21323105DCF46F
:100F20002091A3022430C9F4FC0180E090E08617F0
:100F300058F4309121022191DC01AF5FBD4FA30F26
:100F4000B11D2C930196F3CF80912102680F60931D
:100F5000210280E0089581E0089582E008950895D7
:100F600008950895E0916F0180916E01E81730F4C3
:100F7000F0E0E059FE4F808190E008958FEF9FEF01
:100F8000089590916F0180916E01981750F4E92FA8
:100F9000F0E0E059FE4F208130E09F5F90936F01B9
:100FA00002C02FEF3FEFC901089580916E0190E0DC
:100FB00020916F01821B91090895CF92DF92EF92E9
:100FC000FF920F931F93CF93DF937C01CB018A0194
:100FD0002091A402222389F0EB016B01C40ED51EDF
:100FE000CC15DD0569F06991D701ED91FC91019077
:100FF000F081E02DC7010995F3CF642F0E94870788
:10100000C801DF91CF911F910F91FF90EF90DF907A
:10101000CF900895CF93DF931F92CDB7DEB769834A
:101020002091A4022223D1F02091C702203240F067
:1010300021E030E0FC013383228380E090E015C0A2
:101040008091A502E82FF0E0EA55FD4F9981908349
:101050008F5F8093A5028093C70205C061E0CE0137
:1010600001960E94870781E090E00F90DF91CF9179
:101070000895089580E090E00895CF92DF92EF9276
:10108000FF920F931F93CF93DF932091940130E051
:10109000F901E95BF34F8491F901ED5CF34FD491D1
:1010A000F901E15EF34FC491CC2391F081110E94CC
:1010B000360DEC2FF0E0EE0FFF1FEF5FF34FA59121
:1010C000B491EC91ED2331E009F430E0832F02C0BC
:1010D00080E090E02FB7F894409178025091790227
:1010E00060917A0270917B022FBF009146021091AD
:1010F000470220914802309149026A017B01C01ADF
:10110000D10AE20AF30A970186010B3F1105210576
:10111000310520F01092450210924402409346029D
:101120005093470260934802709349022091450210
:101130003FEF320F383048F401C0880F3A95EAF794
:1011400090914402892B8093440281E0820F809326
:1011500045028B30B9F4809191018F5F8D3208F098
:1011600080E090919001981749F0E82FF0E090917D
:101170004402E65BFD4F90838093910110924502FB
:1011800010924402DF91CF911F910F91FF90EF9049
:10119000DF90CF900895FC01848DDF01A80FB11D71
:1011A000A35ABF4F2C91848D90E001968F7399279D
:1011B000848FA689B7892C93A089B1898C9183707B
:1011C00080648C93938D848D981306C00288F38974
:1011D000E02D80818F7D80830895EF92FF920F93A1
:1011E0001F93CF93DF93EC0181E0888F9B8D8C8DD3
:1011F000981305C0E889F989808185FD26C0F62EFF
:101200000B8D10E00F5F1F4F0F731127E02E8C8D99
:10121000E8120CC00FB607FCFACFE889F989808183
:1012200085FFF5CFCE010E94CB08F1CF8B8DFE015B
:10123000E80FF11DE35AFF4FF0829FB7F8940B8F30
:10124000EA89FB89808180620AC09FB7F894EE89A1
:10125000FF896083E889F989808183708064808355
:101260009FBF81E090E0DF91CF911F910F91FF90A0
:10127000EF900895CF93DF93EC01888D8823C9F018
:10128000EA89FB89808185FD05C0A889B9898C918F
:1012900086FD0FC00FB607FCF5CF808185FFF2CF2A
:1012A000A889B9898C9185FFEDCFCE010E94CB082A
:1012B000E7CFDF91CF910895CF93DF93909177029D
:1012C0002091920130919301A9014F5E5E4FB901C7
:1012D00068577F4FD901A05FBE4F80919001E09188
:1012E00091018E1304C09093770280E05BC08F5F02
:1012F0008D3208F080E0E82FF0E0E65BFD4FE08102
:1013000080939001EE2379F3E03F11F49160E5CFF3
:10131000E03E11F49260E1CF90FF0EC0E23111F493
:101320009B7F08C0E93511F4977F04C0E13111F4C7
:1013300091FD9F7E9C7FD1CFE23111F49460CDCF9F
:10134000E93511F49860C9CFE13111F491FD906154
:1013500091FF08C0EA54E433E8F4F0E0E25FFE4FA6
:10136000E08119C094FF07C08C91882321F0E838F0
:1013700088F4EA010AC0892F8C7021F0E83850F413
:10138000EB0103C0E83830F4E901CE0FD11DFE01B6
:10139000E49101C0E0E09C7FEE2309F49ECF90939E
:1013A00077028E2FDF91CF9108951F920F920FB683
:1013B0000F9211242F933F934F935F936F937F93DB
:1013C0008F939F93AF93BF93EF93FF938091B90057
:1013D000887F803609F49CC068F5883209F45BC0C8
:1013E00090F4803109F454C038F4882309F4F6C02D
:1013F000883009F44DC0F6C0883109F44CC0803201
:1014000009F45DC0EFC0803409F468C048F480334B
:1014100009F455C0883309F0E5C08093A102D8C013
:10142000803509F44FC0883509F45DC0883409F06F
:10143000D9C0D6C0883909F4C7C0A8F4883709F4E0
:1014400067C038F4883609F463C0803709F460C097
:10145000C9C0883809F4B8C0803909F45FC0803841
:1014600009F0C0C05BC0803B09F486C038F4803A04
:1014700009F466C0883A09F47FC0B4C0803C09F41E
:10148000A7C0883C09F4A4C0883B09F48AC0AAC05C
:1014900080917E0210C09091A00280919F029817C7
:1014A00070F5E091A00281E08E0F8093A002F0E041
:1014B000E158FD4F80818093BB0085EC86C080930E
:1014C000A1028EC0E091A00281E08E0F8093A00265
:1014D0008091BB00F0E0E158FD4F80839091A00225
:1014E00080919F026EC0E091A00281E08E0F8093F8
:1014F000A0028091BB00F0E0E158FD4F8083809115
:10150000A20281116DC081E080937D0284EA61C0F6
:1015100083E08093A30210924302CFCF80914302D5
:10152000803208F051C0E091430281E08E0F809339
:1015300043028091BB00F0E0ED5DFD4F8083BDCFA5
:1015400085EC8093BC001092A3028091430280320C
:1015500030F4E0914302F0E0ED5DFD4F10826091C8
:10156000430270E0E0916A01F0916B0183E292E046
:1015700009951092430236C084E08093A302109232
:10158000220210922102E0916C01F0916D01099507
:1015900080912102811105C081E080932102109287
:1015A0000102E091220281E08E0F80932202F0E09E
:1015B000EF5FFD4F80818093BB009091220280916C
:1015C0002102981708F479CF85E88093BC000AC0FF
:1015D00085EC8093BC001092A30204C01092A1027B
:1015E0000E947D07FF91EF91BF91AF919F918F91E5
:1015F0007F916F915F914F913F912F910F900FBE0F
:101600000F901F9018951F920F920FB60F921124F2
:101610002F933F934F935F936F937F938F939F93FA
:10162000AF93BF93EF93FF93E0E0F0E00995FF9154
:10163000EF91BF91AF919F918F917F916F915F914A
:101640004F913F912F910F900FBE0F901F901895C3
:101650001F93CF93DF93C82F162FD42F622F8EE0C6
:101660000E945F0D8D2F90E0912B0E94D90CCF3FEF
:1016700039F0EC2FF0E0E65FFE4F60E080810EC0B5
:1016800060E080E10E945F0D60E08BE00E945F0DF2
:1016900060E081E10E945F0D60E08CE00E945F0DE0
:1016A00060E08AE00E945F0D61E08AE00E945F0DC9
:1016B000CF3F39F0EC2FF0E0E65FFE4F61E0808134
:1016C0000EC061E080E10E945F0D61E08BE00E944E
:1016D0005F0D61E081E10E945F0D61E08CE00E949E
:1016E0005F0D61E08EE0DF91CF911F910C945F0D53
:1016F0007F928F929F92AF92BF92CF92DF92EF92A2
:10170000FF920F931F93CF93DF93842EC82FD0E0C7
:1017100093E0D595C7959A95E1F77C2E8770982E22
:10172000233008F020E085E0689F7001112467FFF6
:1017300009C040E852E0249FC001259F900D11246C
:10174000E80EF91E21E0492D4068692D68618C2F53
:101750000E94280B21E0492D692D8C2F0E94280B17
:1017600000E010E084E0A82EB12C602F80E090E033
:1017700040E0F701E80FF91FEF5FFD4FE491F0E063
:10178000002E02C0F595E7950A94E2F7E0FBCC2421
:10179000C0F8D12C9501281B390BF60102C0EE0FC1
:1017A000FF1F2A95E2F74E2B01968530910509F728
:1017B000686021E0872D0E94280B0F5F1F4F0730C4
:1017C000110599F620E0482D692D8C2FDF91CF91DE
:1017D0001F910F91FF90EF90DF90CF90BF90AF904F
:1017E0009F908F907F900C94280B1F93CF93DF9343
:1017F000C1EAD1E010E029814A816881812F0E94ED
:10180000780B1F5F23961032B1F7DF91CF911F91B4
:101810000895E1EAF1E080E220A931A942A92193EB
:101820003193419385A716A617A691E0E13DF907EC
:1018300099F70C94F50B1F93CF93DF93182FD62FA6
:10184000C42F80919501803228F00E94090C80E11C
:10185000809395012C2F4D2F612F809195010E942F
:10186000780B80919501E82FF0E09F01220F331F44
:10187000E20FF31FEF55FE4F1083D283C1838F5FBA
:1018800080939501DF91CF911F91089540E061E031
:101890008FE30C941B0CE1EAF1E080E2808311827B
:1018A0001282339692E0E130F907C1F70C94F50B00
:1018B0003FB7F8948091720390917303A0917403E1
:1018C000B091750326B5A89B05C02F3F19F001966E
:1018D000A11DB11D3FBFBA2FA92F982F8827820FB6
:1018E000911DA11DB11DBC01CD0142E0660F771F06
:1018F000881F991F4A95D1F70895282F3091C70264
:10190000313208F04AC08091A3028111FCCF90913E
:10191000C60242E04093A3022093A2022FEF20933D
:10192000A1021092A00230939F02E6EAF2E0AFE734
:10193000B2E020E0321721F041914D932F5FFACFB2
:1019400010927E0220917E02990F922B90937E023C
:1019500090917D02913061F410927D0290917E020F
:101960009093BB009091BC0093FDF8CF95EC01C023
:1019700095EE9093BC009091A3029230E1F3909188
:10198000A1029F3F79F08091A102803241F08091C5
:10199000A102803331F084E005C081E003C082E021
:1019A00001C083E01092A5021092C7021092A40217
:1019B0000895CF93DF93D82FC92F80917C02806246
:1019C00091E09093A4028093C6021092A502109217
:1019D000C70262E185E693E00E940A086D2F85E662
:1019E00093E00E940A086C2F85E693E00E940A08A3
:1019F00081E0DF91CF910C947D0CCF93C62F909115
:101A00007C02906221E02093A4029093C60210927F
:101A1000A5021092C702682F85E693E00E940A088B
:101A20006C2F85E693E00E940A0881E0CF910C9428
:101A30007D0C0F931F93CF93082F10E093E0159523
:101A400007959A95E1F7C82FC770462F4F776C2FEF
:101A5000686121E0802F0E94280B20E040E06C2F7D
:101A6000802FCF911F910F910C94280B833081F020
:101A700028F4813099F08230A1F008958730A9F0E0
:101A80008830B9F08430D1F4809180008F7D03C01C
:101A9000809180008F7780938000089584B58F7740
:101AA00002C084B58F7D84BD08958091B0008F778A
:101AB00003C08091B0008F7D8093B00008951F9384
:101AC000CF93DF93282F30E0F901E95BF34F849146
:101AD000F901ED5CF34FD491F901E15EF34FC4914C
:101AE000CC23C1F0162F81110E94360DEC2FF0E0AF
:101AF000EE0FFF1FEB5EF34FA591B4919FB7F894E3
:101B0000111104C08C91D095D82302C0EC91DE2B2A
:101B1000DC939FBFDF91CF911F910895CF93DF9307
:101B200090E0FC01ED5CF34F2491FC01E15EF34F8A
:101B30008491882361F190E0880F991FFC01E55F93
:101B4000F34FC591D491FC01EB5EF34FA591B49195
:101B5000611109C09FB7F8948881209582238883FA
:101B6000EC912E230BC0623061F49FB7F89488810A
:101B7000322F309583238883EC912E2B2C939FBF9B
:101B800006C08FB7F894E8812E2B28838FBFDF9192
:101B9000CF9108958F929F92AF92BF92CF92DF9292
:101BA000EF92FF926B017C010E94580C4B015C018B
:101BB000C114D104E104F104F1F00E94580CDC01DD
:101BC000CB0188199909AA09BB09883E9340A10550
:101BD000B10570F321E0C21AD108E108F10888EEDE
:101BE000880E83E0981EA11CB11CC114D104E1042D
:101BF000F10419F7DDCFFF90EF90DF90CF90BF9009
:101C0000AF909F908F9008951F920F920FB60F92F2
:101C100011242F933F938F939F93AF93BF93809102
:101C2000780290917902A0917A02B0917B02309172
:101C3000710323E0230F2D3720F40196A11DB11D60
:101C400005C026E8230F0296A11DB11D2093710344
:101C50008093780290937902A0937A02B0937B02EA
:101C60008091720390917303A0917403B0917503F6
:101C70000196A11DB11D8093720390937303A093ED
:101C80007403B0937503BF91AF919F918F913F9172
:101C90002F910F900FBE0F901F901895CF93DF9349
:101CA000CDB7DEB7A1970FB6F894DEBF0FBECDBF9C
:101CB000789484B5826084BD84B5816084BD85B527
:101CC000826085BD85B5816085BD80916E00816033
:101CD00080936E00109281008091810082608093D9
:101CE00081008091810081608093810080918000DB
:101CF0008160809380008091B10084608093B10006
:101D00008091B00081608093B00080917A008460FF
:101D100080937A0080917A00826080937A0080912B
:101D20007A00816080937A0080917A008068809345
:101D30007A001092C10061E080E10E948E0D61E0A6
:101D40008BE00E948E0D61E081E10E948E0D61E0CA
:101D50008CE00E948E0D61E089E00E948E0D61E0B2
:101D60008EE00E948E0D61E08DE00E948E0D61E09C
:101D70008FE00E948E0D61E08AE00E948E0D61E08E
:101D800080E10E945F0D61E08BE00E945F0D61E0E9
:101D900081E10E945F0D61E08CE00E945F0D61E0D7
:101DA0008EE00E945F0D61E08DE00E945F0D61E0BA
:101DB0008FE00E945F0D61E08AE00E945F0DE0917C
:101DC000D802F091D90282E08083E091D402F091B0
:101DD000D5021082E091D602F091D70287E6808387
:101DE0001092E002E091DC02F091DD0286E0808357
:101DF000E091DA02F091DB02808180618083E091E2
:101E0000DA02F091DB02808188608083E091DA025F
:101E1000F091DB02808180688083E091DA02F091AA
:101E2000DB0280818F7D80832FB7F89480917802C8
:101E300090917902A0917A02B0917B022FBF813AF2
:101E40009648A140B105C0F181E092E0A0E0B0E089
:101E500019A2BE016F5D7F4F8C019D010F7011278C
:101E600022273327F4E0B695A79597958795FA959D
:101E7000D1F7615071090A3014F4005D01C0095CAA
:101E8000FB0100830097A105B10531F761157105CC
:101E900059F001900020E9F73197AF01461B570B2D
:101EA00088EC92E00E945A0642E050E066E671E05B
:101EB00088EC92E00E945A0610927C0210926F0108
:101EC00010926E011092A5021092C7021092A30206
:101ED00081E08093A20210927D0261E082E10E9483
:101EE0005F0D61E083E10E945F0D8091B9008E7FFC
:101EF0008093B9008091B9008D7F8093B90088E408
:101F00008093B80085E48093BC008FEA97E09093BB
:101F10006D0180936C0180EB97E090936B0180934F
:101F20006A016FEF80E00E94FD0C6FEF81E00E947C
:101F3000FD0C11E0EE24EA9465EED62E75ECC72E6A
:101F4000812C912C54018394F0E1FF1609F477C0A1
:101F500001E027E02F1508F000E08F2D8770782E24
:101F600080917C0280621093A4028093C60210923A
:101F7000A5021092C702602F85E693E00E940A082E
:101F800081E00E947D0C80917C0280629091A3028E
:101F90009111FCCF1093A3021093A202E092A10230
:101FA0001092A00210929F0210937E0290917E02E6
:101FB000880F892B80937E0280917D02813069F4A5
:101FC00010927D0280917E028093BB008091BC00C4
:101FD00083FDF8CFC092BC0002C0D092BC008091BB
:101FE000A3028130E1F38091A002811103C090919E
:101FF000A00201C091E0AFE7B2E0E0E7F1E080E0ED
:10200000891721F02D9121938F5FFACF10926F01E4
:1020100080936E0185E693E00E94C107B501A4019B
:1020200004C0440F551F661F771F7A94D2F740955E
:10203000642F6823802F0E94FD0CF39485CF80E0ED
:1020400090E00E94D90CF09281001092800081E013
:102050008093980188E890E090939701809396018F
:10206000909387008093860081E18093810061E0F6
:1020700089E00E948E0D80918000806880938000AE
:102080002091960130919701AFEFB1E00E94751257
:10209000DC01CB015AE0B695A795979587955A959F
:1020A000D1F7909389008093880080919801806196
:1020B0008093810060E08FE00E945F0D61E070E03E
:1020C00080E090E00E94CA0D61E08FE00E945F0D09
:1020D00061E070E080E090E00E94CA0D0E944B0C2D
:1020E00021E04CE060E18FEF0E94280B82E08093BA
:1020F000940188E690E0909393018093920162E0CE
:1021000083E00E948E0D62E082E00E948E0D1092AC
:102110009101109290018DE398E0909303018093D8
:10212000020180916900837F886080936900E99A49
:1021300085E0E4E0F1E0DE01119601900D928A95D0
:10214000E1F78E010F5F1F4FF12CF80161918F01B4
:1021500020E040E08F2D0E94780BF394F5E0FF1211
:10216000F4CF8FE18093950183E0682E712C94E089
:10217000E92EF12C9924939427E0822ECC24C39449
:10218000D12C42E0A42EB12C8091990181110AC07A
:1021900080919A01811106C00E945C098093990187
:1021A000882361F080919A01882309F448C1109234
:1021B0009A01682F88EC92E00E94ED0888EC92E08A
:1021C0000E946707181619060CF036C188EC92E0D9
:1021D0000E94450720919F013091A00122303105D6
:1021E00009F452C040F42115310571F02130310558
:1021F00009F441C01BC12330310509F454C0243017
:10220000310509F4E5C012C18B31910529F4D09252
:10221000A001C0929F0110C18A30910541F48091C4
:102220009501803110F00E94090C80E106C08D30CC
:10223000910531F480919501887F80939501FCC0D0
:102240008830910589F480919501882309F4F4C0C0
:1022500081508093950140E060E080E20E941B0C79
:10226000809195018150E9CF40919E0160919D013F
:102270000E941B0CE1C08B35910509F0D7C0B092CC
:10228000A001A0929F01D8C09C01205331092A309F
:10229000310508F0CBC0805380939C017092A0015F
:1022A00060929F01C9C08A34910541F420919C013C
:1022B000223009F07FC00E944B0CBAC08B339105CD
:1022C00009F05EC020919C01223009F073C010E03B
:1022D00061E4610F812F0E94190D1F5F1032C1F759
:1022E00060ED77E080E090E00E94CA0D10E061E6CA
:1022F000610F812F0E94190D1F5F1032C1F760ED31
:1023000077E080E090E00E94CA0D10E061E6610F86
:1023100020E040E0812F0E94780B1F5F1032B1F760
:1023200060ED77E080E090E00E94CA0D10E061E689
:10233000610F20E040E0812F0E94780B1F5F183072
:10234000B1F768EB610F20E040E0812F0E94780B2D
:102350001F5F1031B1F760EB610F21E040E0812F8A
:102360000E94780B1F5F1831B1F768EA610F22E015
:1023700040E0812F0E94780B1F5F1032B1F758C0E8
:102380008D36910561F420919C01253019F49092CD
:102390009D014EC021110EC010929D0149C087348D
:1023A000910541F420919C01222321F0215020939A
:1023B00095013EC09C01205331092A303105B0F50A
:1023C000805380939B01F092A001E0929F0134C062
:1023D0008D369105D1F480919C01833069F4809110
:1023E0009B01883028F5482D481B486021E060E1BA
:1023F0008FEF0E94280B1CC08130C1F480919B019B
:102400008330B0F480939E0113C08734910571F43A
:1024100080919B01815090919C012AE0929F800DB8
:102420001124813228F48093950102C00E94460C49
:102430001092A00110929F010E947307A5CE809177
:102440009901882319F01092990102C00E945C0939
:1024500087FF0DC0982F9F73906890939A01682F03
:102460006295669566956370862F806CA2CE811109
:10247000A0CE6FEF7FEF9ECEE8ECF2E013821282E7
:1024800088EE93E0A0E0B0E084839583A683B783D1
:1024900026E431E03183208325EC30E03587248742
:1024A00024EC30E03787268720EC30E0318B208B1E
:1024B00021EC30E0338B228B22EC30E0358B248B07
:1024C00026EC30E0378B268B118E128E138E148EF5
:1024D000E5E6F3E01382128284839583A683B783B3
:1024E00088E591E0918380830895A29FB001B39F16
:1024F000C001A39F700D811D1124911DB29F700D0D
:10250000811D1124911D0895EE0FFF1F0590F49178
:10251000E02D099481E090E0F8940C948F12F894E7
:02252000FFCFEB
:1025220059065906726561647900100B110C2F006F
:1025320000000000000000000000000000000D008C
:10254200000000000000000000000000009C0008E5
:1025520081000000807F0A00150B000000001A00B5
:10256200001900000000ED085A0636073A0967070D
:1025720045075907000000000A08DD073A08B107BD
:0A258200D507C107B2070D0A0000DB
:107E0000112484B714BE81FFF0D085E080938100F7
:107E100082E08093C00088E18093C10086E0809377
:107E2000C20080E18093C4008EE0C9D0259A86E02C
:107E300020E33CEF91E0309385002093840096BBD3
:107E4000B09BFECF1D9AA8958150A9F7CC24DD24C4
:107E500088248394B5E0AB2EA1E19A2EF3E0BF2EE7
:107E6000A2D0813461F49FD0082FAFD0023811F036
:107E7000013811F484E001C083E08DD089C08234E0
:107E800011F484E103C0853419F485E0A6D080C0E4
:107E9000853579F488D0E82EFF2485D0082F10E0AE
:107EA000102F00270E291F29000F111F8ED06801E7
:107EB0006FC0863521F484E090D080E0DECF843638
:107EC00009F040C070D06FD0082F6DD080E0C81688
:107ED00080E7D80618F4F601B7BEE895C0E0D1E017
:107EE00062D089930C17E1F7F0E0CF16F0E7DF06D8
:107EF00018F0F601B7BEE89568D007B600FCFDCFD4
:107F0000A601A0E0B1E02C9130E011968C91119780
:107F100090E0982F8827822B932B1296FA010C0160
:107F200087BEE89511244E5F5F4FF1E0A038BF0790
:107F300051F7F601A7BEE89507B600FCFDCF97BE46
:107F4000E89526C08437B1F42ED02DD0F82E2BD052
:107F50003CD0F601EF2C8F010F5F1F4F84911BD097
:107F6000EA94F801C1F70894C11CD11CFA94CF0C13
:107F7000D11C0EC0853739F428D08EE10CD085E9AC
:107F80000AD08FE07ACF813511F488E018D01DD067
:107F900080E101D065CF982F8091C00085FFFCCF94
:107FA0009093C60008958091C00087FFFCCF809118
:107FB000C00084FD01C0A8958091C6000895E0E648
:107FC000F0E098E1908380830895EDDF803219F02E
:107FD00088E0F5DFFFCF84E1DECF1F93182FE3DFCA
:107FE0001150E9F7F2DF1F91089580E0E8DFEE27F6
:047FF000FF270994CA
:027FFE00040479
:0400000300007E007B
:00000001FF
