:100000000C942F080C94B7080C9490080C94570883
:100010000C9457080C9457080C9457080C945708E4
:100020000C9457080C9457080C9457080C945708D4
:100030000C9457080C94030D0C9457080C94570813
:100040000C94EB0F0C9457080C9404090C94DE08E4
:100050000C9457080C9457080C9457080C945708A4
:100060000C94D50B0C945708008A00868482838DEB
:10007000008B898785096000000000000071310055
:1000800000007A736177320000637864653433006E
:100090000020766674723500006E626867793600FB
:1000A00000006D6A75373800002C6B696F303900BD
:1000B000002E2F6C3B702D00000027005B3D0000E0
:1000C00000000D5D005C00000000000000007F00EB
:1000D0000031003437000000302E323536381B0036
:1000E0008C2B332D2A398E00000000880000000080
:1000F000008A00868482838D008B898785097E0033
:10010000000000000051210000005A5341574000F8
:1001100000435844452423000020564654522500ED
:10012000004E424847595E0000004D4A55262A00BD
:10013000003C4B494F292800003E3F4C3A505F009D
:10014000000022007B2B000000000D7D007C0000E1
:100150000000000000007F00003100343700000084
:10016000302E323536381B008C2B332D2A398E0039
:1001700000000088000000000000000000000000F7
:10018000000000000000000000000000000000006F
:10019000000000000000000000000000000000005F
:1001A000000000000000000000000000000000004F
:1001B000000000000000000000000000000000003F
:1001C000000000000000000000000000000000002F
:1001D000000000000000000000000000000000001F
:1001E000000000000000000000000000000000000F
:1001F00000000000000000000000000000000000FF
:1002000000000000000000000000000000000000EE
:1002100000000000000000000000000000000000DE
:1002200000000000000000000000000000000000CE
:1002300000000000000000000000000000000000BE
:1002400000000000000000000000000000000000AE
:10025000000000000000000000000000000000009E
:10026000000000000000000000000000000000008E
:10027000000000000000000000000000000000007E
:10028000000000000000000000000000000000006E
:10029000000000000000000000000000000000005E
:1002A000000000000000000000000000000000004E
:1002B000000000000000000000000000000000003E
:1002C000000000000000000000000000000000002E
:1002D000000000000000000000000000000000001E
:1002E0000000000000000000040404040400040AEC
:1002F0000A00000000000A0A1F0A1F0A0A040F145D
:100300000E051E04181902040813030C1214081514
:10031000120D0C0408000000000204080808040282
:10032000080402020204080004150E15040000046B
:10033000041F040400000000000602040000001F67
:100340000000000000000000060600010204081082
:10035000000E11111111110E040C040404040E0EF0
:1003600011010E10101F1F02040201011E02060AD5
:10037000121F02021F101E0101110E0E10101E117D
:10038000110E1F0102040404040E11110E11110EAE
:100390000E11110F01010E000606000606000006F0
:1003A00006000602040204081008040200001F00F0
:1003B0001F0000080402010204080E1101020400DB
:1003C000040E11010D15150E0E11111F1111111E24
:1003D00011111E11111E0E11101010110E1E1111EF
:1003E0001111111E1F10101E10101F1F10101E10B3
:1003F00010100E11101711110E1111111F111111E2
:10040000040404040404040702020202120C111280
:1004100014181412111010101010101F111B1511A8
:10042000111111111119151311110E1111111111B1
:100430000E1E11111E1010100E11111115120D1E8D
:1004400011111E1412110F10100E01011E1F0404B1
:10045000040404041111111111110E1111111111C3
:100460000A041111111111150A11110A040A1111AE
:100470001111110A0404041F01020408101F0E08C0
:10048000080808080E001008040201000E0202020B
:1004900002020E040A11000000000000000000002B
:1004A0001F0402000000000000000E010F110F10D9
:1004B00010161911111E00000E1010110E01010D61
:1004C0001311110F00000E111F100E06091C080851
:1004D000080800000E110F010E101016191111114D
:1004E0000400040404040402000202020A041010BE
:1004F00012141814120C04040404040E00001A153B
:100500001515150000161911111100000E11111109
:100510000E00001E111E101000000F110F0101002F
:1005200000161910101000000E100E011E08081CF5
:10053000080808060000111111130D000011111117
:100540000A040000111115150A0000110A040A110D
:10055000000011110F010E00001F0204081F020409
:100560000408040402040404040404040804040247
:100570000404080000000D1200000000000000004C
:10058000000000000000000000000000000000006B
:10059000000000000000000000000000000000005B
:1005A000000000000000000000000000000000004B
:1005B000000000000000000000000000000000003B
:1005C000000000000000000000000000000000002B
:1005D000000000000000000000000000000000001B
:1005E000000000000000000000000000000000000B
:1005F00000000000000000000000000000000000FB
:1006000000000000000000000000000000000000EA
:1006100000000000000000000000000000000000DA
:1006200000000000000000000000000000000000CA
:1006300000000000000000000000000000000000BA
:1006400000000000000000000000000000000000AA
:10065000000000000000000000000000000000009A
:10066000000000000000000004000404040404046E
:100670000E1514150E040608081C080A1500110EA4
:100680000A0E1100110A041F041F040404040004CC
:1006900004040609040A04120C0A00000000000009
:1006A0001F11171717111F0E010F110F001F000543
:1006B0000A140A05000000001F01010002040000E6
:1006C0000000001F11151113151F1F00000000006E
:1006D000000C12120C00000004041F0404001F0C84
:1006E0001204081E00001C041C041C00000204006C
:1006F00000000000111111131D10100F13130F0330
:1007000003030000000606000000000000000204D1
:10071000081808081C00000E1111110E001F00140B
:100720000A050A14001112150B17010111121709FD
:10073000130407180818091B070104000408101106
:100740000E08040E111F111102040E111F11110EBB
:10075000000E111F11111F000E111F11110A000EA2
:10076000111F1111040A0E111F1111070C14171C6F
:100770001417000E10110E040C08041F101E101F79
:1007800001021F101E101F0E001F101E101F0A0056
:100790001F101E101F08040E0404040E02040E0491
:1007A00004040E0E000E0404040E0A000E040404D9
:1007B0000E0E09091D09090E1F0011191513110844
:1007C000040E1111110E02040E1111110E0E000E65
:1007D0001111110E1F000E1111110E0A000E111130
:1007E000110E00110A040A1100020E1515150E084B
:1007F0000804111111110E0204111111110E0E0035
:10080000111111110E0A00111111110E0204110A19
:10081000040404080E09090E080806090A09090E4D
:100820000808040E010F110F02040E010F110F0E24
:10083000000E010F110F1F000E010F110F0A000E05
:10084000010F110F040A0E010F110F001A050F14EA
:10085000150A000E10110E040C08040E111F100EC4
:1008600002040E111F100E0E000E111F100E0A00B2
:100870000E111F100E0804000C04040E0204000CDC
:1008800004040E040A000C04040E000A000C040404
:100890000E140814020F110E1F0016191111110861
:1008A00004000E11110E0204000E11110E040A00B4
:1008B0000E11110E0D12000E11110E000A000E1174
:1008C000110E0004001F000400020E1515150E087D
:1008D0000804001111130D0204001111130D040A74
:1008E000001111130D000A001111130D0204111152
:1008F0001F010E0C04060506040E0A0011110F015B
:100900000E000000000000000000000000000000D9
:1009100000000000000000000000000000000000D7
:1009200000000000000000000000000000000000C7
:1009300000000000000000000000000000000000B7
:1009400000000000000000000000000000000000A7
:100950000000000000110A1F041F04040000000032
:100960000000000000000000000000000000000087
:100970000000000000000000000000000000000077
:100980000000000000000000000000000000000067
:100990000000000000000000000000000000000057
:1009A0000000000000000000000000000000000047
:1009B0000000000000000000000000000000000037
:1009C0000000000000000000000000000000000027
:1009D0000000000000000000000000000000000017
:1009E0000000000000000000000000001C141C07B4
:1009F0000404040000000000000404041C000000C3
:100A0000001008040000000C0C0000001F011F0172
:100A1000020400001F01060408000002040C140474
:100A20000000041F1101060000001F04041F000045
:100A3000021F060A120000081F090A080000000E23
:100A400002021F00001E021E021E000000151501FA
:100A5000060000001F0000001F0105060404080135
:100A600002040C140404041F1111010204001F04E9
:100A70000404041F021F02060A1202081F090909C2
:100A80000912041F041F040404000F091101020CC1
:100A9000080F1202020204001F010101011F0A1FB8
:100AA0000A0A0204080018011901021C001F0102B1
:100AB000040A11081F090A08080700111109010298
:100AC0000C000F091503020C021C041F040408008B
:100AD0001515150102040E001F0404040808080877
:100AE0000C0A080804041F04040810000E0000008B
:100AF000001F001F010A040A10041F02040E15043F
:100B00000202020202040800040211111111101065
:100B10001F1010100F001F010101020C0008140229
:100B2000010100041F0404151504001F01010A043B
:100B300002000E000E000E0100040810111F01003B
:100B400001010A040A10001F081F08080708081FEF
:100B5000090A08080E02020202021F001F011F01FB
:100B6000011F0E001F0101020412121212020408DA
:100B70000004141415151610101011121418001F6B
:100B8000111111111F001F111101020400180001A1
:100B900001021C041208000000001C141C000000CC
:100BA0000000091512120D000A000E010F110F06A8
:100BB00009090E09090E00000E100C110E0000119B
:100BC00011131D1100000F1412110E00000609115F
:100BD0001F10000F11110F01010007040414080079
:100BE00000021A02000000020006020202121408AB
:100BF0001400000000040E1414150E0408081C084C
:100C00001C080F0E0016191111110A000E111111F6
:100C10000E00161911111E10000D1311110F0100F5
:100C20000E111F11110E00000B151A000000000E0E
:100C300011110A1B0A00111111130D1F10080408CD
:100C4000101F00001F0A0A0A131F00110A040A11CC
:100C500000111111110F0100011E041F04040000F6
:100C60001F080F091100001F151F11110004001F9C
:100C70000004000000000000000000000000000070
:100C80000000000000000000000000000000000064
:100C90000000000000000000000000000000000054
:100CA0000000000000000000000000000000000044
:100CB0000000000000000000000000000000000034
:100CC0000000000000000000000000000000000024
:100CD0000000000000000000000000000000000014
:100CE0000000000000000000000000000000000004
:100CF00000000000000000000000000000000000F4
:100D000000000000000000000000000000000000E3
:100D100000000000000000000000000000000000D3
:100D200000000000000000000000000000000000C3
:100D300000000000000000000000000000000000B3
:100D400000000000000000000000000000000000A3
:100D50000000000000000000000000000000000093
:100D60000000000000000000000000000000000083
:100D70000000000000000000000000000000110E54
:100D80000A0E11000000000000000004040400042A
:100D900004040F101E0A0F011E0A001F101E101F50
:100DA000000000000000000000000000000000043F
:100DB000091209040000000000000000000000000B
:100DC0000000000000000000000000000000000023
:100DD000000C12120C00000004041F0404001F0089
:100DE0000000000000000000000000000000000003
:100DF0000000000000000A0A0E091000001F0A0A85
:100E00000A13000000040000000A000E111F100E5B
:100E10000312121A16121200000000000000000453
:100E20001209120400000000000000000000000091
:100E300000000000000000000000000000000000B2
:100E4000000E1111111F11111F10101E11111E1E65
:100E500011111E11111E1F1110101010100E0A0A70
:100E60000A0A1F111F10101E10101F1515150E1540
:100E700015151E01010E01011E1111131519111175
:100E80000A0411131519111112141814121107095B
:100E90000909090911111B15151111111111111F42
:100EA0001111110E11111111110E1F11111111112A
:100EB000111E11111E1010100E11101010110E1F06
:100EC0000404040404041111110F01010E0E151580
:100ED000150E040411110A040A1111121212121231
:100EE0001F011111110F0101011515151515151F00
:100EF00015151515151F011808080E09090E1111F1
:100F0000111D13131D1010101E11111E0E110107BB
:100F100001110E1215151D1515120F11110F0509CE
:100F20001100000E010F110F030C101E11110E0005
:100F3000001E111E111E00001F11101010000006CF
:100F40000A0A1F1100000E111F100E000015150EC9
:100F5000151500001E010E011E00001113151911B8
:100F600000041511131519000011121C12110000B4
:100F700007090909110000111B15111100001111B9
:100F80001F111100000E1111110E00001F1111117F
:100F90001100001E111E101000000E1110100F0085
:100FA000001F04040404000011110F010E00000EC4
:100FB000150E04040000110A040A11000012121296
:100FC0001F01000011110F01010000151515151F5B
:100FD00000001515151F01000018080E090E00006D
:100FE00011111D131D000010101E111E00000E1106
:100FF00007110E000012151D151200000F110F0928
:101000001100000000230026002900000000002439
:101010000027002A0000000000250028002B000403
:10102000040404040404040202020202020303038F
:101030000303030102040810204080010204081089
:101040002001020408102000000008000201000036
:101050000304070000000000000000003414112405
:101060001FBECFEFD8E0DEBFCDBF11E0A0E0B1E002
:10107000E2E1F9E202C005900D92AA36B107D9F774
:1010800023E0AAE6B1E001C01D92A637B207E1F75E
:1010900018E0CFE2D8E004C02197FE010E947C1442
:1010A000CE32D107C9F70E9435100C9487140C94E6
:1010B00000000895CF92DF92EF92FF920F931F935B
:1010C000CF93DF936C017A018B01C0E0D0E0CE15A5
:1010D000DF0581F0D8016D918D01D601ED91FC9174
:1010E0000190F081E02DC6010995892B11F0219620
:1010F000EECF7E01C701DF91CF911F910F91FF903D
:10110000EF90DF90CF90089588EC92E00E946709FD
:1011100021E0892B09F420E0822F08950E94821497
:101120001F920F920FB60F9211242F933F934F935C
:101130005F936F937F938F939F93AF93BF93EF933F
:10114000FF93E0910201F09103010995FF91EF9166
:10115000BF91AF919F918F917F916F915F914F91CF
:101160003F912F910F900FBE0F901F9018951F92D7
:101170000F920FB60F9211242F933F934F935F93CB
:101180006F937F938F939F93AF93BF93EF93FF934F
:10119000E0910001F09101010995FF91EF91BF915C
:1011A000AF919F918F917F916F915F914F913F91FF
:1011B0002F910F900FBE0F901F9018951F920F92B6
:1011C0000FB60F9211242F933F934F935F936F931A
:1011D0007F938F939F93AF93BF93EF93FF9388EC8D
:1011E00092E00E94CB0AFF91EF91BF91AF919F9146
:1011F0008F917F916F915F914F913F912F910F90C0
:101200000FBE0F901F9018951F920F920FB60F925E
:1012100011242F938F939F93EF93FF93E091D80224
:10122000F091D9028081E091DE02F091DF0282FD2F
:1012300012C090818091E1028F5F8F732091E20252
:10124000821751F0E091E102F0E0E853FD4F958FF5
:101250008093E10201C08081FF91EF919F918F9176
:101260002F910F900FBE0F901F901895FC01538D7A
:10127000448D252F30E0842F90E0821B930B541770
:1012800010F0CF96089501970895FC01918D828DFD
:10129000981761F0828DDF01A80FB11D5D968C91CA
:1012A000928D9F5F9F73928F90E008958FEF9FEFD5
:1012B0000895FC01918D828D981731F0828DE80F91
:1012C000F11D858D90E008958FEF9FEF0895FC014B
:1012D000918D228D892F90E0805C9F4F821B910918
:1012E0008F739927089580E090E0892B29F00E9460
:1012F000840881110C940000089585ED8093BC0052
:101300008091BC0084FDFCCF1092A302089540910F
:101310002102262F30E0240F311D21323105DCF46B
:101320002091A3022430C9F4FC0180E090E08617EC
:1013300058F4309121022191DC01AF5FBD4FA30F22
:10134000B11D2C930196F3CF80912102680F609319
:10135000210280E0089581E0089582E008950895D3
:1013600008950895E0916F0180916E01E81730F4BF
:10137000F0E0E059FE4F808190E008958FEF9FEFFD
:10138000089590916F0180916E01981750F4E92FA4
:10139000F0E0E059FE4F208130E09F5F90936F01B5
:1013A00002C02FEF3FEFC901089580916E0190E0D8
:1013B00020916F01821B91090895CF92DF92EF92E5
:1013C000FF920F931F93CF93DF937C01CB018A0190
:1013D0002091A402222389F0EB016B01C40ED51EDB
:1013E000CC15DD0569F06991D701ED91FC91019073
:1013F000F081E02DC7010995F3CF642F0E94870982
:10140000C801DF91CF911F910F91FF90EF90DF9076
:10141000CF900895CF93DF931F92CDB7DEB7698346
:101420002091A4022223D1F02091C702203240F063
:1014300021E030E0FC013383228380E090E015C09E
:101440008091A502E82FF0E0EA55FD4F9981908345
:101450008F5F8093A5028093C70205C061E0CE0133
:1014600001960E94870981E090E00F90DF91CF9173
:101470000895089580E090E00895CF92DF92EF9272
:10148000FF920F931F93CF93DF932091940130E04D
:10149000F901E95BFF4E8491F901ED5CFF4ED491B7
:1014A000F901E15EFF4EC491CC2391F081110E94BD
:1014B0001D0FEC2FF0E0EE0FFF1FEF5FFF4EA59129
:1014C000B491EC91ED2331E009F430E0832F02C0B8
:1014D00080E090E02FB7F894409178025091790223
:1014E00060917A0270917B022FBF009146021091A9
:1014F000470220914802309149026A017B01C01ADB
:10150000D10AE20AF30A970186010B3F1105210572
:10151000310520F010924502109244024093460299
:10152000509347026093480270934902209145020C
:101530003FEF320F383048F401C0880F3A95EAF790
:1015400090914402892B8093440281E0820F809322
:1015500045028B30B9F4809191018F5F8D3208F094
:1015600080E090919001981749F0E82FF0E0909179
:101570004402E65BFD4F90838093910110924502F7
:1015800010924402DF91CF911F910F91FF90EF9045
:10159000DF90CF900895FC01848DDF01A80FB11D6D
:1015A000A35ABF4F2C91848D90E001968F73992799
:1015B000848FA689B7892C93A089B1898C91837077
:1015C00080648C93938D848D981306C00288F38970
:1015D000E02D80818F7D80830895EF92FF920F939D
:1015E0001F93CF93DF93EC0181E0888F9B8D8C8DCF
:1015F000981305C0E889F989808185FD26C0F62EFB
:101600000B8D10E00F5F1F4F0F731127E02E8C8D95
:10161000E8120CC00FB607FCFACFE889F98980817F
:1016200085FFF5CFCE010E94CB0AF1CF8B8DFE0155
:10163000E80FF11DE35AFF4FF0829FB7F8940B8F2C
:10164000EA89FB89808180620AC09FB7F894EE899D
:10165000FF896083E889F989808183708064808351
:101660009FBF81E090E0DF91CF911F910F91FF909C
:10167000EF900895CF93DF93EC01888D8823C9F014
:10168000EA89FB89808185FD05C0A889B9898C918B
:1016900086FD0FC00FB607FCF5CF808185FFF2CF26
:1016A000A889B9898C9185FFEDCFCE010E94CB0A24
:1016B000E7CFDF91CF910895CF93DF939091770299
:1016C0002091920130919301A9014F5E5E4FB901C3
:1016D00068577F4FD901A05FBE4F80919001E09184
:1016E00091018E1304C09093770280E05BC08F5FFE
:1016F0008D3208F080E0E82FF0E0E65BFD4FE081FE
:1017000080939001EE2379F3E03F11F49160E5CFEF
:10171000E03E11F49260E1CF90FF0EC0E23111F48F
:101720009B7F08C0E93511F4977F04C0E13111F4C3
:1017300091FD9F7E9C7FD1CFE23111F49460CDCF9B
:10174000E93511F49860C9CFE13111F491FD906150
:1017500091FF08C0EA54E433E8F4F0E0E15FFE4FA3
:10176000E08119C094FF07C08C91882321F0E838EC
:1017700088F4EA010AC0892F8C7021F0E83850F40F
:10178000EB0103C0E83830F4E901CE0FD11DFE01B2
:10179000E49101C0E0E09C7FEE2309F49ECF90939A
:1017A00077028E2FDF91CF9108951F920F920FB67F
:1017B0000F9211242F933F934F935F936F937F93D7
:1017C0008F939F93AF93BF93EF93FF938091B90053
:1017D000887F803609F49CC068F5883209F45BC0C4
:1017E00090F4803109F454C038F4882309F4F6C029
:1017F000883009F44DC0F6C0883109F44CC08032FD
:1018000009F45DC0EFC0803409F468C048F4803347
:1018100009F455C0883309F0E5C08093A102D8C00F
:10182000803509F44FC0883509F45DC0883409F06B
:10183000D9C0D6C0883909F4C7C0A8F4883709F4DC
:1018400067C038F4883609F463C0803709F460C093
:10185000C9C0883809F4B8C0803909F45FC080383D
:1018600009F0C0C05BC0803B09F486C038F4803A00
:1018700009F466C0883A09F47FC0B4C0803C09F41A
:10188000A7C0883C09F4A4C0883B09F48AC0AAC058
:1018900080917E0210C09091A00280919F029817C3
:1018A00070F5E091A00281E08E0F8093A002F0E03D
:1018B000E158FD4F80818093BB0085EC86C080930A
:1018C000A1028EC0E091A00281E08E0F8093A00261
:1018D0008091BB00F0E0E158FD4F80839091A00221
:1018E00080919F026EC0E091A00281E08E0F8093F4
:1018F000A0028091BB00F0E0E158FD4F8083809111
:10190000A20281116DC081E080937D0284EA61C0F2
:1019100083E08093A30210924302CFCF80914302D1
:10192000803208F051C0E091430281E08E0F809335
:1019300043028091BB00F0E0ED5DFD4F8083BDCFA1
:1019400085EC8093BC001092A30280914302803208
:1019500030F4E0914302F0E0ED5DFD4F10826091C4
:10196000430270E0E0916A01F0916B0183E292E042
:1019700009951092430236C084E08093A30210922E
:10198000220210922102E0916C01F0916D01099503
:1019900080912102811105C081E080932102109283
:1019A0000102E091220281E08E0F80932202F0E09A
:1019B000EF5FFD4F80818093BB0090912202809168
:1019C0002102981708F479CF85E88093BC000AC0FB
:1019D00085EC8093BC001092A30204C01092A10277
:1019E0000E947D09FF91EF91BF91AF919F918F91DF
:1019F0007F916F915F914F913F912F910F900FBE0B
:101A00000F901F9018951F920F920FB60F921124EE
:101A10002F933F934F935F936F937F938F939F93F6
:101A2000AF93BF93EF93FF93E0E0F0E00995FF9150
:101A3000EF91BF91AF919F918F917F916F915F9146
:101A40004F913F912F910F900FBE0F901F901895BF
:101A50001F93CF93DF93C82F162FD42F622F8EE0C2
:101A60000E94460F8D2F90E0912B0E94C00ECF3F19
:101A700039F0EC2FF0E0E55FFE4F60E080810EC0B2
:101A800060E080E10E94460F60E08BE00E94460F1C
:101A900060E081E10E94460F60E08CE00E94460F0A
:101AA00060E08AE00E94460F61E08AE00E94460FF3
:101AB000CF3F39F0EC2FF0E0E55FFE4F61E0808131
:101AC0000EC061E080E10E94460F61E08BE00E9461
:101AD000460F61E081E10E94460F61E08CE00E94C8
:101AE000460F61E08EE0DF91CF911F910C94460F7D
:101AF000E1EAF1E080E2808311821282339692E083
:101B0000E130F907C1F71092950140910401477047
:101B1000486821E060E18FEF0E94280D61E070E0ED
:101B200080E090E00C94B10FBF92CF92DF92EF92E1
:101B3000FF920F931F93CF93DF93D42F082F10E0C2
:101B400093E0159507959A95E1F7B02EC82FC770C9
:101B5000233008F020E087E0689F6001112467FFD0
:101B600009C040E853E0249FC001259F900D112437
:101B7000C80ED91E21E04C2F40686C2F6861802F61
:101B80000E94280D21E04C2F6C2F802F0E94280DE1
:101B9000E12CF12CF601EE0DFF1DEF5FFD4F44919E
:101BA0006E2D686021E08B2D0E94280D8FEFE81AC2
:101BB000F80A87E0E816F10469F720E04D2F6C2F52
:101BC000802FDF91CF911F910F91FF90EF90DF90C9
:101BD000CF90BF900C94280D1F93CF93DF93C1EA51
:101BE000D1E0FE0180E220A931A942A921933193DD
:101BF000419385A716A617A691E0E13DF90799F74D
:101C000080E18093950110E029814A816881812FCC
:101C10000E94940D1F5F23961032B1F7DF91CF9190
:101C20001F9108951F93CF93DF93182FD62FC42FA2
:101C300080919501803210F00E94EC0D2C2F4D2FD9
:101C4000612F809195010E94940D80919501E82F5C
:101C5000F0E09F01220F331FE20FF31FEF55FE4FFD
:101C60001083D283C1838F5F80939501DF91CF91E1
:101C70001F91089540E061E08FE30C94120E3FB78E
:101C8000F8948091720390917303A0917403B091C2
:101C9000750326B5A89B05C02F3F19F00196A11D1D
:101CA000B11D3FBFBA2FA92F982F8827820F911DF2
:101CB000A11DB11DBC01CD0142E0660F771F881F39
:101CC000991F4A95D1F70895282F3091C7023132D4
:101CD00008F04AC08091A3028111FCCF9091C60206
:101CE00042E04093A3022093A2022FEF2093A1028F
:101CF0001092A00230939F02E6EAF2E0AFE7B2E072
:101D000020E0321721F041914D932F5FFACF1092CE
:101D10007E0220917E02990F922B90937E029091E9
:101D20007D02913061F410927D0290917E02909339
:101D3000BB009091BC0093FDF8CF95EC01C095EEEF
:101D40009093BC009091A3029230E1F39091A10294
:101D50009F3F79F08091A102803241F08091A102F1
:101D6000803331F084E005C081E003C082E001C02F
:101D700083E01092A5021092C7021092A402089567
:101D8000CF93DF93D82FC92F80917C02806291E09E
:101D90009093A4028093C6021092A5021092C702EB
:101DA00062E185E693E00E940A0A6D2F85E693E0E2
:101DB0000E940A0A6C2F85E693E00E940A0A81E0DD
:101DC000DF91CF910C94640ECF93C62F90917C023B
:101DD000906221E02093A4029093C6021092A50283
:101DE0001092C702682F85E693E00E940A0A6C2FC2
:101DF00085E693E00E940A0A81E0CF910C94640E7C
:101E00000F931F93CF93082F10E093E0159507953C
:101E10009A95E1F7C82FC770462F4F776C2F6861EE
:101E200021E0802F0E94280D20E040E06C2F802FC1
:101E3000CF911F910F910C94280D833081F028F4DD
:101E4000813099F08230A1F008958730A9F0883070
:101E5000B9F08430D1F4809180008F7D03C08091EF
:101E600080008F7780938000089584B58F7702C0BB
:101E700084B58F7D84BD08958091B0008F7703C0B5
:101E80008091B0008F7D8093B00008951F93CF9311
:101E9000DF93282F30E0F901E95BFF4E8491F901CF
:101EA000ED5CFF4ED491F901E15EFF4EC491CC236D
:101EB000C1F0162F81110E941D0FEC2FF0E0EE0FE4
:101EC000FF1FEB5EFF4EA591B4919FB7F8941111DF
:101ED00004C08C91D095D82302C0EC91DE2BDC930A
:101EE0009FBFDF91CF911F910895CF93DF9390E033
:101EF000FC01ED5CFF4E2491FC01E15EFF4E8491FC
:101F0000882361F190E0880F991FFC01E55FFF4E87
:101F1000C591D491FC01EB5EFF4EA591B491611186
:101F200009C09FB7F8948881209582238883EC911B
:101F30002E230BC0623061F49FB7F8948881322F52
:101F4000309583238883EC912E2B2C939FBF06C062
:101F50008FB7F894E8812E2B28838FBFDF91CF9124
:101F600008958F929F92AF92BF92CF92DF92EF929D
:101F7000FF926B017C010E943F0E4B015C01C1147A
:101F8000D104E104F104F1F00E943F0EDC01CB0129
:101F900088199909AA09BB09883E9340A105B10592
:101FA00070F321E0C21AD108E108F10888EE880E2A
:101FB00083E0981EA11CB11CC114D104E104F104FA
:101FC00019F7DDCFFF90EF90DF90CF90BF90AF90EB
:101FD0009F908F9008951F920F920FB60F92112429
:101FE0002F933F938F939F93AF93BF9380917802EA
:101FF00090917902A0917A02B0917B0230917103A5
:1020000023E0230F2D3720F40196A11DB11D05C03B
:1020100026E8230F0296A11DB11D20937103809322
:10202000780290937902A0937A02B0937B02809118
:10203000720390917303A0917403B091750301969C
:10204000A11DB11D8093720390937303A093740339
:10205000B0937503BF91AF919F918F913F912F9155
:102060000F900FBE0F901F901895CF93DF93CDB7B1
:10207000DEB7A1970FB6F894DEBF0FBECDBF789440
:1020800084B5826084BD84B5816084BD85B582607D
:1020900085BD85B5816085BD80916E00816080932E
:1020A0006E00109281008091810082608093810097
:1020B00080918100816080938100809180008160A7
:1020C000809380008091B10084608093B100809102
:1020D000B00081608093B00080917A00846080932A
:1020E0007A0080917A00826080937A0080917A00F1
:1020F000816080937A0080917A00806880937A0072
:102100001092C10061E080E10E94750F61E08BE0F8
:102110000E94750F61E081E10E94750F61E08CE023
:102120000E94750F61E089E00E94750F61E08EE00A
:102130000E94750F61E08DE00E94750F61E08FE0F5
:102140000E94750F61E08AE00E94750F61E080E1F6
:102150000E94460F61E08BE00E94460F61E081E142
:102160000E94460F61E08CE00E94460F61E08EE025
:102170000E94460F61E08DE00E94460F61E08FE013
:102180000E94460F61E08AE00E94460FE091D8026B
:10219000F091D90282E08083E091D402F091D502DF
:1021A0001082E091D602F091D70283E380831092EF
:1021B000E002E091DC02F091DD0286E08083E091B4
:1021C000DA02F091DB02808180618083E091DA02A3
:1021D000F091DB02808188608083E091DA02F091E7
:1021E000DB02808180688083E091DA02F091DB027B
:1021F00080818F7D80832FB7F894809178029091B1
:102200007902A0917A02B0917B022FBF813A964861
:10221000A140B105C0F181E092E0A0E0B0E019A2D8
:10222000BE016F5D7F4F8C019D010F70112722272A
:102230003327F4E0B695A79597958795FA95D1F74A
:10224000615071090A3014F4005D01C0095CFB01A2
:1022500000830097A105B10531F76115710559F0AB
:1022600001900020E9F73197AF01461B570B88EC2E
:1022700092E00E945A0842E050E067E671E088EC84
:1022800092E00E945A0810927C0210926F01109204
:102290006E011092A5021092C7021092A30281E073
:1022A0008093A20210927D0261E082E10E94460FBB
:1022B00061E083E10E94460F8091B9008E7F809398
:1022C000B9008091B9008D7F8093B90088E4809334
:1022D000B80085E48093BC008FEA99E090936D018B
:1022E00080936C0180EB99E090936B0180936A017D
:1022F0008CE08093B8006FEF80E00E94E40E6FEFF7
:1023000081E00E94E40E11E0EE24EA9465EED62E00
:1023100075ECC72E812C912C54018394F0E1FF16AB
:1023200009F477C001E027E02F1508F000E08F2DB9
:102330008770782E80917C0280621093A402809333
:10234000C6021092A5021092C702602F85E693E0A4
:102350000E940A0A81E00E94640E80917C028062E1
:102360009091A3029111FCCF1093A3021093A202AB
:10237000E092A1021092A00210929F0210937E029E
:1023800090917E02880F892B80937E0280917D023E
:10239000813069F410927D0280917E028093BB00AF
:1023A0008091BC0083FDF8CFC092BC0002C0D092E7
:1023B000BC008091A3028130E1F38091A0028111E1
:1023C00003C09091A00201C091E0AFE7B2E0E0E766
:1023D000F1E080E0891721F02D9121938F5FFACFF2
:1023E00010926F0180936E0185E693E00E94C1090F
:1023F000B501A40104C0440F551F661F771F7A94CE
:10240000D2F74095642F6823802F0E94E40EF39446
:1024100085CF80E090E00E94C00EF0928100109283
:10242000800081E08093980188E890E09093970184
:1024300080939601909387008093860081E180933A
:10244000810061E089E00E94750F809180008068C2
:10245000809380002091960130919701AFEFB1E019
:102460000E946D14DC01CB015AE0B695A7959795B3
:1024700087955A95D1F79093890080938800809131
:10248000980180618093810060E08FE00E94460F98
:1024900061E070E080E090E00E94B10F61E08FE0C9
:1024A0000E94460F61E070E080E090E00E94B10F72
:1024B0000E94780D84E08093040121E04CE060E10B
:1024C0008FEF0E94280D82E08093940188E690E0CF
:1024D000909393018093920162E083E00E94750FD4
:1024E00062E082E00E94750F1092910110929001BB
:1024F0008DE39AE09093030180930201809169003B
:10250000837F886080936900E99A85E0E5E0F1E0E7
:10251000DE01119601900D928A95E1F78E010F5F11
:102520001F4FF12CF80161918F0120E040E08F2DC9
:102530000E94940DF394F5E0FF12F4CF8FE18093A5
:10254000950183E0682E712C94E0E92EF12C9924FA
:10255000939427E0822ECC24C394D12C42E0A42E65
:10256000B12C8091990181110AC080919A01811149
:1025700006C00E945C0B80939901882361F08091D2
:102580009A01882309F453C110929A01682F88ECAC
:1025900092E00E94ED0A88EC92E00E94670918160A
:1025A00019060CF041C188EC92E00E944509209187
:1025B0009F013091A0012230310509F455C040F44B
:1025C0002115310571F02130310509F444C026C1CF
:1025D0002330310509F457C02430310509F4EEC029
:1025E0001DC18B31910529F4D092A001C0929F01A9
:1025F0001BC18A30910541F480919501803110F022
:102600000E94EC0D80E11DC08D30910539F4809160
:1026100095018031B8F71092950106C18830910577
:1026200099F480919501882309F4FEC0815080932C
:10263000950140E060E080E20E94120E80919501D9
:10264000815080939501F0C040919E0160919D0161
:102650000E94120EE9C08B35910509F0DFC0B092DF
:10266000A001A0929F01E0C09C01205331092A30B3
:10267000310508F0D3C0805380939C017092A00173
:1026800060929F01D1C08A34910541F420919C0150
:10269000223009F085C00E94780DC2C08B339105AD
:1026A00009F064C020919C01223009F079C010E04B
:1026B00061E4610F812F0E94000F1F5F1032C1F78C
:1026C00060ED77E080E090E00E94B10F10E061E6FD
:1026D000610F812F0E94000F1F5F1032C1F760ED64
:1026E00077E080E090E00E94B10F10E061E6610FBA
:1026F00020E040E0812F0E94940D1F5F1032B1F75F
:1027000060ED77E080E090E00E94B10F10E061E6BC
:10271000610F20E040E0812F0E94940D1F5F183070
:10272000B1F768EB610F20E040E0812F0E94940D2B
:102730001F5F1031B1F760EB610F21E040E0812FA6
:102740000E94940D1F5F1831B1F768EA610F22E013
:1027500040E0812F0E94940D1F5F1032B1F760EDB1
:1027600077E080E090E00E94B10F5AC08D3691056D
:1027700061F420919C01253019F490929D0150C084
:1027800021110EC010929D014BC08734910541F478
:1027900020919C01222321F021502093950140C0DB
:1027A0009C01205331092A303105C0F580538093B4
:1027B0009B01F092A001E0929F0136C08D369105F9
:1027C000E1F480919C01833079F480919B01883001
:1027D00038F5482D481B40930401486021E060E132
:1027E0008FEF0E94280D1CC08130C1F480919B01A5
:1027F0008330B0F480939E0113C08734910571F447
:1028000080919B01815090919C012AE0929F800DC4
:102810001124813228F48093950102C00E943A0E5F
:102820001092A00110929F010E9473099ACE80918C
:102830009901882319F01092990102C00E945C0B43
:1028400087FF0DC0982F9F73906890939A01682F0F
:102850006295669566956370862F806C97CE811120
:1028600095CE6FEF7FEF93CEE8ECF2E01382128209
:1028700088EE93E0A0E0B0E084839583A683B783DD
:1028800027E431E03183208325EC30E0358724874D
:1028900024EC30E03787268720EC30E0318B208B2A
:1028A00021EC30E0338B228B22EC30E0358B248B13
:1028B00026EC30E0378B268B118E128E138E148E01
:1028C000E5E6F3E01382128284839583A683B783BF
:1028D00089E591E0918380830895A29FB001B39F21
:1028E000C001A39F700D811D1124911DB29F700D19
:1028F000811D1124911D0895EE0FFF1F0590F49185
:10290000E02D099481E090E0F8940C948714F894F9
:02291000FFCFF7
:102912005908590804726561647900100B110C2F73
:102922000000000000000000000000000000000D98
:1029320000000000000000000000000000009C00F9
:102942000881000000807F0A00150B000000001AB9
:1029520000001900000000ED0A5A0836093A0B6718
:102962000945095909000000000A0ADD093A0AB1BD
:0A29720009D509C109B2090D0A00D8
:107E0000112484B714BE81FFF0D085E080938100F7
:107E100082E08093C00088E18093C10086E0809377
:107E2000C20080E18093C4008EE0C9D0259A86E02C
:107E300020E33CEF91E0309385002093840096BBD3
:107E4000B09BFECF1D9AA8958150A9F7CC24DD24C4
:107E500088248394B5E0AB2EA1E19A2EF3E0BF2EE7
:107E6000A2D0813461F49FD0082FAFD0023811F036
:107E7000013811F484E001C083E08DD089C08234E0
:107E800011F484E103C0853419F485E0A6D080C0E4
:107E9000853579F488D0E82EFF2485D0082F10E0AE
:107EA000102F00270E291F29000F111F8ED06801E7
:107EB0006FC0863521F484E090D080E0DECF843638
:107EC00009F040C070D06FD0082F6DD080E0C81688
:107ED00080E7D80618F4F601B7BEE895C0E0D1E017
:107EE00062D089930C17E1F7F0E0CF16F0E7DF06D8
:107EF00018F0F601B7BEE89568D007B600FCFDCFD4
:107F0000A601A0E0B1E02C9130E011968C91119780
:107F100090E0982F8827822B932B1296FA010C0160
:107F200087BEE89511244E5F5F4FF1E0A038BF0790
:107F300051F7F601A7BEE89507B600FCFDCF97BE46
:107F4000E89526C08437B1F42ED02DD0F82E2BD052
:107F50003CD0F601EF2C8F010F5F1F4F84911BD097
:107F6000EA94F801C1F70894C11CD11CFA94CF0C13
:107F7000D11C0EC0853739F428D08EE10CD085E9AC
:107F80000AD08FE07ACF813511F488E018D01DD067
:107F900080E101D065CF982F8091C00085FFFCCF94
:107FA0009093C60008958091C00087FFFCCF809118
:107FB000C00084FD01C0A8958091C6000895E0E648
:107FC000F0E098E1908380830895EDDF803219F02E
:107FD00088E0F5DFFFCF84E1DECF1F93182FE3DFCA
:107FE0001150E9F7F2DF1F91089580E0E8DFEE27F6
:047FF000FF270994CA
:027FFE00040479
:0400000300007E007B
:00000001FF
