:100000000C942F060C945C0A0C94350A0C94570639
:100010000C9457060C9457060C9457060C945706EC
:100020000C9457060C9457060C9457060C945706DC
:100030000C9457060C94090C0C9457060C94570614
:100040000C949D0D0C9457060C94A90A0C94830AE9
:100050000C9457060C9457060C9457060C945706AC
:100060000C94DB0A0C9457060000000023002600C5
:10007000290000000000000000000000000000094E
:100080006000000000000071310000007A736177A9
:100090003200006378646534330000207666747241
:1000A0003500006E62686779360000006D6A75374A
:1000B0003800002C6B696F303900002E2F6C3B70BC
:1000C0002D00000027005B3D000000000D5D005C7E
:1000D00000000000000000007F0000310034370005
:1000E0000000302E323536381B00002B332D2A39D4
:1000F0000000000000000000000000000000000000
:1001000000000000000000097E0000000000005117
:10011000210000005A5341574000004358444524F1
:1001200023000020564654522500004E42484759AD
:100130005E0000004D4A55262A00003C4B494F29DD
:100140002800003E3F4C3A505F00000022007B2B0D
:10015000000000000D7D007C000000000000000099
:100160007F000031003437000000302E3235363841
:100170001B00002B332D2A39000000000000000076
:10018000000000000000000000000000000000006F
:10019000000000000000000000000000000000005F
:1001A000000000000000000000000000000000004F
:1001B000000000000000000000000000000000003F
:1001C000000000000000000000000000000000002F
:1001D000000000000000000000000000000000001F
:1001E000000000000000000000000000000000000F
:1001F00000000000000000000000000000000000FF
:1002000000000000000000000000000000000000EE
:1002100000000000000000000000000000000000DE
:1002200000000000000000000000000000000000CE
:1002300000000000000000000000000000000000BE
:1002400000000000000000000000000000000000AE
:10025000000000000000000000000000000000009E
:10026000000000000000000000000000000000008E
:10027000000000000000000000000000000000007E
:10028000000000000000000000000000000000006E
:10029000000000000000000000000000000000005E
:1002A000000000000000000000000000000000004E
:1002B00000005F00000003000300147F147F14247B
:1002C0002A7F2A12231308646236495522500005FA
:1002D000030000001C2241000041221C0014083EC3
:1002E000081408083E0808000050300008080808F4
:1002F00008000060600020100804023E4141413EB9
:1003000000427F400072494949464141454B3118FE
:1003100014127F1027454545393E494949300101AE
:100320007905033649494936064949493E000036B0
:10033000360000005636000814224100141414142C
:100340001400412214080201510906324979413E44
:100350007E0909097E7F494949363E414141227F54
:100360004141413E7F494949417F090909013E41D7
:1003700049493A7F0808087F00007F00002040417B
:100380003F017F081422417F404040407F02040229
:100390007F7F0408107F3E4141413E7F09090906E5
:1003A0003E4151215E7F091929464649494931019B
:1003B000017F01013F4040403F1F2040201F3F4040
:1003C00020403F631408146307087008076151490F
:1003D0004543007F41410002040810200041417F55
:1003E00000040201020440404040400000010200BD
:1003F00020545454787F4844443838444444203886
:100400004444487F3854545418047E05010208546B
:100410005454387F0804047800007D000000204018
:100420003D007F1028440000417F40007C04780498
:10043000787C0804047838444444387C1414140844
:10044000081414147C7C08040408485454542004F0
:100450003F4440003C4040207C1C2040201C3C404D
:1004600030403C44281028440C5050503C446454C4
:100470004C44000836410000007F0000004136086F
:100480000010080810080000000000000000000034
:10049000000000000000000000000000000000005C
:1004A000000000000000000000000000000000004C
:1004B000000000000000000000000000000000003C
:1004C000000000000000000000000000000000002C
:1004D000000000000000000000000000000000001C
:1004E000000000000000000000000000000000000C
:1004F00000000000000000000000000000000000FC
:1005000000000000000000000000000000000000EB
:1005100000000000000000000000000000000000DB
:1005200000000000000000000000000000000000CB
:1005300000007D00001C227F2214483E49214022F9
:100540001C141C22292A7C2A290000770000204A3A
:1005500055290200010001007F415D5D7F4855552E
:10056000555E08142A142208080808380000020101
:10057000007F4165517F0101010101060909060063
:1005800044445F4444121915120015151F00000061
:10059000000201007F1010081F0609097F7F00007C
:1005A0001818000000402000121F1000004E51518A
:1005B000514E22142A14081708141A7D170864567D
:1005C0005D151F2030783048454020781516147886
:1005D0007814161578781515157879151515797814
:1005E0001514157878161516787C127F49490C5227
:1005F0007212087C555654447C545456457C5555CB
:1006000055447C5554554400457E440000447E4585
:100610000000457D450000457C4500087F49413E7E
:100620007D0911217D3845464438384446453838DF
:1006300045454538394545453938454445382214FE
:100640000814221C623E231C3C4142403C3C404278
:10065000413C3C4141413C3C4140413C0408720921
:1006600004007F12120C007E21251A205556547862
:100670002054565578205555557821555555792093
:10068000555455782056555678324A3C4A2C0C52CF
:10069000721208385556541838545655183855554E
:1006A0005518385554551800497A400000487A4189
:1006B00000004A794200004A7842002552555830DD
:1006C0007D0905057930494A483030484A4930307B
:1006D0004A494A303249494A31304A484A30080882
:1006E0002A08081C623E231C3841422078384042C8
:1006F0002178384241227838424022781C505251A9
:100700003C00417F54080C5150513C000000000057
:1007100000000000000000000000000000000000D9
:1007200000000000000000000000000000000000C9
:1007300000000000000000000000000000000000B9
:100740000000000000000015167C161500000000D7
:100750000000000000000000000000000000000099
:100760000000000000000000000000000000000089
:100770000000000000000000000000000000000079
:100780000000000000000000000000000000000069
:100790000000000000000000000000000000000059
:1007A0000000000000000000000000000000000049
:1007B000705070000000000F0101404078000010F0
:1007C0002040000000181800000A0A4A2A1E0444AB
:1007D00034140C201078040018084C483848487825
:1007E00048484828187C08087C0828184048487859
:1007F000405454547C001800584038080808080831
:1008000001413D090710087C02010E0243221E42ED
:10081000427E424222120A7F02423F02423E0A0ABE
:100820007F0A0A084642221E0403423E0242424216
:10083000427E024F221F024A4A40201C4222122AB4
:1008400046023F424A46064840201E08464A321E9B
:100850000A4A3E09080E004E201E04453D050400CC
:100860007F08100044241F04044042424240422AB0
:10087000122A0622127B16220040201F0078000256
:1008800004783F44444444024242221E04020408C5
:100890003032027F0232021222520E002A2A2A40ED
:1008A000382422207040281028060A3E4A4A4A046A
:1008B0007F04140C4041417F404A4A4A4A7E040565
:1008C00045251C0F40201F007C007E40307F4020CB
:1008D00010087E4242427E0E0242221E42424020C8
:1008E00018020401020007050700001C2224182634
:1008F000205554557800FE4949362854544420FC6C
:100900002020107C38444C5424F0282424380C92A5
:1009100092927E10201E02020404000E0040808489
:100920007D0005020500001C227F2210147F544028
:10093000407C090505783845444538FE2422221CB0
:100940001C222224FE3C4A4A4A3C181408140C5823
:10095000640464583C4140217C6355494141443C16
:10096000047C4445291129451EA0A0A07E14147CB6
:100970001412443C1414747C141C147C08082A08B7
:10098000080000000000000000000000000000005F
:100990000000000000000000000000000000000057
:1009A0000000000000000000000000000000000047
:1009B0000000000000000000000000000000000037
:1009C0000000000000000000000000000000000027
:1009D0000000000000000000000000000000000017
:1009E0000000000000000000000000000000000007
:1009F00000000000000000000000000000000000F7
:100A000000000000000000000000000000000000E6
:100A100000000000000000000000000000000000D6
:100A200000000000000000000000000000000000C6
:100A30000000000000000000000000000000002294
:100A40001C141C2200000000000000770000465D1E
:100A5000555D317C555455440000000000000000F5
:100A6000000008142208140000000000000000002C
:100A70000000000000000000000000060909060058
:100A800044445F44440000000000000000000000F7
:100A900000000000403C101C20443C047C4400004A
:100AA00008000038555455187E08107F01000000DA
:100AB00000001408221408000000000000000000DC
:100AC00000000000000000000000007E1111117EF7
:100AD0007F494949317F494949367F010101036016
:100AE0003F213F607F4949494177087F0877414965
:100AF0004949367F1008047F7C2112097C7F081445
:100B00002241403E01017F7F020C027F7F080808DE
:100B10007F3E4141413E7F0101017F7F0909090676
:100B20003E4141412201017F0101074848483F0EF3
:100B3000117F110E63140814633F20203F600708E3
:100B400008087F7F407F407F3F203F207F017F4814
:100B500048307F4848307F7F4848483022414949E3
:100B60003E7F083E413E462919097F20545454785F
:100B70003C4A4A49317C545454287C0404040C6097
:100B800038243C6038545454186C107C106C445415
:100B90005454287C2010087C7C4026107C7C10104B
:100BA0002844403804047C7C0810087C7C10101019
:100BB0007C38444444387C0404047C7C14141408B9
:100BC000384444444804047C04040C5050503C080D
:100BD000147C140844281028443C20203C600C104D
:100BE00010107C7C407C407C3C203C207C047C5071
:100BF00050207C5050207C7C50505020284454542D
:100C0000387C10384438483414147C000000002428
:100C10000027002A0000000000250028002B000407
:100C20000404040404040402020202020203030393
:100C3000030303010204081020408001020408108D
:100C4000200102040810200000000800020100003A
:100C500003040700000000000000000073111124CD
:100C60001FBECFEFD8E0DEBFCDBF11E0A0E0B1E006
:100C7000E0E9F3E202C005900D92AA36B107D9F778
:100C800023E0AAE6B1E001C01D92A537B207E1F763
:100C900016E0CFE2D6E004C02197FE010E94BB110E
:100CA000CE32D107C9F70E94E70D0C94C6110C94FF
:100CB0000000089508950895CF92DF92EF92FF9279
:100CC0000F931F93CF93DF936C017A018B01C0E0E8
:100CD000D0E0CE15DF0581F0D8016D918D01D601F0
:100CE000ED91FC910190F081E02DC6010995892BD1
:100CF00011F02196EECF7E01C701DF91CF911F91B8
:100D00000F91FF90EF90DF90CF900895FC01538DED
:100D1000448D252F30E0842F90E0821B930B5417D5
:100D200010F0CF96089501970895FC01918D828D62
:100D3000981761F0828DDF01A80FB11D5D968C912F
:100D4000928D9F5F9F73928F90E008958FEF9FEF3A
:100D50000895FC01918D828D981731F0828DE80FF6
:100D6000F11D858D90E008958FEF9FEF0895FC01B0
:100D7000918D228D892F90E0805C9F4F821B91097D
:100D80008F739927089587EC92E00E94B70621E0BF
:100D9000892B09F420E0822F0895FC01848DDF0166
:100DA000A80FB11DA35ABF4F2C91848D90E00196DE
:100DB0008F739927848FA689B7892C93A089B189CD
:100DC0008C91837080648C93938D848D981306C06E
:100DD0000288F389E02D80818F7D80830895EF92D2
:100DE000FF920F931F93CF93DF93EC0181E0888FE5
:100DF0009B8D8C8D981305C0E889F989808185FDCC
:100E000026C0F62E0B8D10E00F5F1F4F0F731127BA
:100E1000E02E8C8DE8120CC00FB607FCFACFE889E3
:100E2000F989808185FFF5CFCE010E94CD06F1CFF3
:100E30008B8DFE01E80FF11DE35AFF4FF0829FB743
:100E4000F8940B8FEA89FB89808180620AC09FB782
:100E5000F894EE89FF896083E889F989808183703D
:100E6000806480839FBF81E090E0DF91CF911F91EC
:100E70000F91FF90EF900895CF93DF93EC01888D51
:100E80008823C9F0EA89FB89808185FD05C0A8898E
:100E9000B9898C9186FD0FC00FB607FCF5CF808114
:100EA00085FFF2CFA889B9898C9185FFEDCFCE015E
:100EB0000E94CD06E7CFDF91CF91089580E090E0CA
:100EC000892B29F00E94C30681110C94000008951B
:100ED000CF93DF939091E00120910C0230910D02AD
:100EE000A9014F5E5E4FB90168577F4FD901A05FDE
:100EF000BE4F80910A02E0910B028E1304C09093C2
:100F0000E00180E05BC08F5F8D3208F080E0E82F69
:100F1000F0E0ED54FE4FE08180930A02EE2379F376
:100F2000E03F11F49160E5CFE03E11F49260E1CF33
:100F300090FF0EC0E23111F49B7F08C0E93511F437
:100F4000977F04C0E13111F491FD9F7E9C7FD1CF4A
:100F5000E23111F49460CDCFE93511F49860C9CF36
:100F6000E13111F491FD906191FF08C0EA54E4333E
:100F7000E8F4F0E0E25FFE4FE08119C094FF07C0A3
:100F80008C91882321F0E83888F4EA010AC0892F7F
:100F90008C7021F0E83850F4EB0103C0E83830F4ED
:100FA000E901CE0FD11DFE01E49101C0E0E09C7F7C
:100FB000EE2309F49ECF9093E0018E2FDF91CF9125
:100FC000089585ED8093BC008091BC0084FDFCCF2A
:100FD0001092A202089540918A01262F30E0240F3A
:100FE000311D21323105DCF42091A2022430C9F4F4
:100FF000FC0180E090E0861758F430918A0121913D
:10100000DC01A659BE4FA30FB11D2C930196F3CF5F
:1010100080918A01680F60938A0180E0089581E0E1
:10102000089582E008950895E091E6018091E50138
:10103000E81730F4F0E0E951FE4F808190E0089528
:101040008FEF9FEF08959091E6018091E501981749
:1010500050F4E92FF0E0E951FE4F208130E09F5F2E
:101060009093E60102C02FEF3FEFC90108958091F0
:10107000E50190E02091E601821B91090895CF924D
:10108000DF92EF92FF920F931F93CF93DF937C0138
:10109000CB018A012091A302222389F0EB016B018D
:1010A000C40ED51ECC15DD0569F06991D701ED910F
:1010B000FC910190F081E02DC7010995F3CF642FD9
:1010C0000E94EB07C801DF91CF911F910F91FF9014
:1010D000EF90DF90CF900895CF93DF931F92CDB71D
:1010E000DEB769832091A3022223D1F02091C602AA
:1010F000203240F021E030E0FC013383228380E0A5
:1011000090E015C08091A402E82FF0E0EB55FD4F70
:10111000998190838F5F8093A4028093C60205C05B
:1011200061E0CE0101960E94EB0781E090E00F9014
:10113000DF91CF910895089580E090E008951F9386
:10114000CF93DF93C82F162FD42F622F8EE00E94EB
:10115000320D8D2F90E0912B0E94AF0CCF3F39F0D4
:10116000EC2FF0E0E65FFE4F60E080810EC060E0B3
:1011700080E10E94320D60E08BE00E94320D60E061
:1011800081E10E94320D60E08CE00E94320D60E04F
:101190008AE00E94320D61E08AE00E94320DCF3F6A
:1011A00039F0EC2FF0E0E65FFE4F61E080810EC089
:1011B00061E080E10E94320D61E08BE00E94320D1F
:1011C00061E081E10E94320D61E08CE00E94320D0D
:1011D00061E08EE0DF91CF911F910C94320D7F92F0
:1011E0008F929F92AF92BF92CF92DF92EF92FF9237
:1011F0000F931F93CF93DF93982E842EC82FD0E0A8
:1012000093E0D595C7959A95E1F77C2E182F177026
:10121000243008F020E067FD05C085E0689F70017C
:1012200011240DC0605880E892E0289F7001299F2A
:10123000F00C1124E5E06E9FE00CF11C1124412F0D
:101240004068612F686121E08C2F0E949F0821E097
:10125000412F612F8C2F0E949F0800E010E084E056
:10126000A82EB12C602F80E090E040E0F701E80F5D
:10127000F91FE55FFD4FE491F0E0002E02C0F59507
:10128000E7950A94E2F7E0FBCC24C0F8D12C950155
:10129000281B390BF60102C0EE0FFF1F2A95E2F75B
:1012A0004E2B01968530910509F7686021E0872D66
:1012B0000E949F080F5F1F4F0730110599F620E02D
:1012C000482D692D8C2FDF91CF911F910F91FF90A9
:1012D000EF90DF90CF90BF90AF909F908F907F90D6
:1012E0000C949F081F93CF93DF93C1E1D2E010E0ED
:1012F00029814A816881812F0E94EF081F5F239610
:101300001032B1F7DF91CF911F910895E1E1F2E042
:1013100080E220A931A942A921933193419385A765
:1013200017A616A692E0E134F90799F70C94720912
:10133000E1E1F2E080E2808311821282339692E052
:10134000E137F907C1F70C9472090E94C111CF92DD
:10135000DF92EF92FF920F931F93CF93DF93209131
:101360000E0230E0F901E95BF34F8491F901ED5C85
:10137000F34FD491F901E15EF34FC491CC2391F086
:1013800081110E94090DEC2FF0E0EE0FFF1FE859CC
:10139000FF4FA591B491EC91ED2331E009F430E0D9
:1013A000832F02C080E090E02FB7F894409177023D
:1013B000509178026091790270917A022FBF00916A
:1013C000AF011091B0012091B1013091B2016A01D9
:1013D0007B01C01AD10AE20AF30A970186010B3F8A
:1013E00011052105310520F01092AE011092AD01DA
:1013F0004093AF015093B0016093B1017093B2017B
:101400002091AE013FEF320F383048F401C0880F11
:101410003A95EAF79091AD01892B8093AD0181E077
:10142000820F8093AE018B30B9F480910B028F5FF5
:101430008D3208F080E090910A02981749F0E82F69
:10144000F0E09091AD01ED54FE4F908380930B023C
:101450001092AE011092AD01DF91CF911F910F91CB
:10146000FF90EF90DF90CF9008951F920F920FB6EC
:101470000F9211242F933F934F935F936F937F931A
:101480008F939F93AF93BF93EF93FF93E0910201EC
:10149000F09103010995FF91EF91BF91AF919F9159
:1014A0008F917F916F915F914F913F912F910F900D
:1014B0000FBE0F901F9018951F920F920FB60F92AC
:1014C00011242F933F934F935F936F937F938F9349
:1014D0009F93AF93BF93EF93FF93E0910001F0913F
:1014E00001010995FF91EF91BF91AF919F918F916C
:1014F0007F916F915F914F913F912F910F900FBE10
:101500000F901F9018951F920F920FB60F921124F3
:101510002F933F934F935F936F937F938F939F93FB
:10152000AF93BF93EF93FF9387EC92E00E94CD06B9
:10153000FF91EF91BF91AF919F918F917F916F91AB
:101540005F914F913F912F910F900FBE0F901F9081
:1015500018951F920F920FB60F9211242F938F930D
:101560009F93EF93FF93E091D702F091D80280818F
:10157000E091DD02F091DE0282FD12C09081809147
:10158000E0028F5F8F732091E102821751F0E091AA
:10159000E002F0E0E953FD4F958F8093E00201C037
:1015A0008081FF91EF919F918F912F910F900FBEAE
:1015B0000F901F9018951F920F920FB60F92112443
:1015C0002F933F934F935F936F937F938F939F934B
:1015D000AF93BF93EF93FF938091B900887F8036DC
:1015E00009F49CC068F5883209F45BC090F480313E
:1015F00009F454C038F4882309F4F6C0883009F49B
:101600004DC0F6C0883109F44CC0803209F45DC089
:10161000EFC0803409F468C048F4803309F455C041
:10162000883309F0E5C08093A002D8C0803509F462
:101630004FC0883509F45DC0883409F0D9C0D6C0E0
:10164000883909F4C7C0A8F4883709F467C038F4AA
:10165000883609F463C0803709F460C0C9C088388F
:1016600009F4B8C0803909F45FC0803809F0C0C0FF
:101670005BC0803B09F486C038F4803A09F466C048
:10168000883A09F47FC0B4C0803C09F4A7C0883C04
:1016900009F4A4C0883B09F48AC0AAC080917D02E5
:1016A00010C090919F0280919E02981770F5E09172
:1016B0009F0281E08E0F80939F02F0E0E258FD4F81
:1016C00080818093BB0085EC86C08093A0028EC091
:1016D000E0919F0281E08E0F80939F028091BB007A
:1016E000F0E0E258FD4F808390919F0280919E022E
:1016F0006EC0E0919F0281E08E0F80939F028091E7
:10170000BB00F0E0E258FD4F80838091A10281117F
:101710006DC081E080937C0284EA61C083E08093A5
:10172000A2021092AC01CFCF8091AC01803208F0C0
:1017300051C0E091AC0181E08E0F8093AC018091AB
:10174000BB00F0E0E457FE4F8083BDCF85EC809373
:10175000BC001092A2028091AC01803230F4E09182
:10176000AC01F0E0E457FE4F10826091AC0170E0F4
:10177000E091E101F091E2018CE891E0099510928D
:10178000AC0136C084E08093A20210928B011092CB
:101790008A01E091E301F091E401099580918A01C9
:1017A000811105C081E080938A0110926A01E09165
:1017B0008B0181E08E0F80938B01F0E0E659FE4FA4
:1017C00080818093BB0090918B0180918A01981752
:1017D00008F479CF85E88093BC000AC085EC80933B
:1017E000BC001092A20204C01092A0020E94E10765
:1017F000FF91EF91BF91AF919F918F917F916F91E9
:101800005F914F913F912F910F900FBE0F901F90BE
:1018100018951F920F920FB60F9211242F933F939A
:101820004F935F936F937F938F939F93AF93BF93E8
:10183000EF93FF93E0E0F0E00995FF91EF91BF9106
:10184000AF919F918F917F916F915F914F913F9158
:101850002F910F900FBE0F901F9018953FB7F894DF
:101860008091710390917203A0917303B0917403FE
:1018700026B5A89B05C02F3F19F00196A11DB11DEB
:101880003FBFBA2FA92F982F8827820F911DA11D26
:10189000B11DBC01CD0142E0660F771F881F991F63
:1018A0004A95D1F70895282F3091C602313208F0B9
:1018B0004AC08091A2028111FCCF9091C50242E002
:1018C0004093A2022093A1022FEF2093A002109236
:1018D0009F0230939E02E5EAF2E0AEE7B2E020E03C
:1018E000321721F041914D932F5FFACF10927D0274
:1018F00020917D02990F922B90937D0290917C0212
:10190000913061F410927C0290917D029093BB0023
:101910009091BC0093FDF8CF95EC01C095EE9093AB
:10192000BC009091A2029230E1F39091A0029F3FFF
:1019300079F08091A002803241F08091A002803342
:1019400031F084E005C081E003C082E001C083E0A3
:101950001092A4021092C6021092A3020895CF938F
:10196000DF93D82FC92F80917B02806291E0909302
:10197000A3028093C5021092A4021092C60262E1F3
:1019800084E693E00E946C086D2F84E693E00E9449
:101990006C086C2F84E693E00E946C0881E0DF9174
:1019A000CF910C94530CCF93C62F90917B029062F1
:1019B00021E02093A3029093C5021092A4021092FA
:1019C000C602682F84E693E00E946C086C2F84E6C0
:1019D00093E00E946C0881E0CF910C94530CCF925D
:1019E000DF92EF92FF920E942E0C6B017C010E940D
:1019F0002E0CDC01CB018C199D09AE09BF09883E74
:101A00009340A105B10598F3FF90EF90DF90CF9040
:101A10000895833081F028F4813099F08230A1F06C
:101A200008958730A9F08830B9F08430D1F48091DE
:101A300080008F7D03C0809180008F77809380002D
:101A4000089584B58F7702C084B58F7D84BD0895D5
:101A50008091B0008F7703C08091B0008F7D80931C
:101A6000B00008951F93CF93DF93282F30E0F90142
:101A7000E95BF34F8491F901ED5CF34FD491F901E7
:101A8000E15EF34FC491CC23C1F0162F81110E9467
:101A9000090DEC2FF0E0EE0FFF1FEB5EF34FA59169
:101AA000B4919FB7F894111104C08C91D095D823AC
:101AB00002C0EC91DE2BDC939FBFDF91CF911F9191
:101AC0000895CF93DF9390E0FC01ED5CF34F2491F8
:101AD000FC01E15EF34F8491882361F190E0880F6F
:101AE000991FFC01E55FF34FC591D491FC01EB5EBA
:101AF000F34FA591B491611109C09FB7F894888103
:101B0000209582238883EC912E230BC0623061F4F0
:101B10009FB7F8948881322F309583238883EC9186
:101B20002E2B2C939FBF06C08FB7F894E8812E2BE5
:101B300028838FBFDF91CF9108951F920F920FB628
:101B40000F9211242F933F938F939F93AF93BF9343
:101B50008091770290917802A0917902B0917A02F7
:101B60003091700323E0230F2D3720F40196A11D3F
:101B7000B11D05C026E8230F0296A11DB11D2093BB
:101B800070038093770290937802A0937902B093C8
:101B90007A028091710390917203A0917303B091C6
:101BA00074030196A11DB11D80937103909372037C
:101BB000A0937303B0937403BF91AF919F918F91E2
:101BC0003F912F910F900FBE0F901F901895CF93BC
:101BD000DF93CDB7DEB7A1970FB6F894DEBF0FBE87
:101BE000CDBF789484B5826084BD84B5816084BDA6
:101BF00085B5826085BD85B5816085BD80916E00AB
:101C0000816080936E0010928100809181008260DB
:101C10008093810080918100816080938100809118
:101C200080008160809380008091B1008460809307
:101C3000B1008091B00081608093B00080917A0003
:101C4000846080937A0080917A00826080937A0029
:101C500080917A00816080937A0080917A00806818
:101C600080937A001092C10061E080E10E94610DD2
:101C700061E08BE00E94610D61E081E10E94610DF5
:101C800061E08CE00E94610D61E089E00E94610DDD
:101C900061E08EE00E94610D61E08DE00E94610DC7
:101CA00061E08FE00E94610D61E08AE00E94610DB9
:101CB00061E080E10E94320D61E08BE00E94320D14
:101CC00061E081E10E94320D61E08CE00E94320D02
:101CD00061E08EE00E94320D61E08DE00E94320DE5
:101CE00061E08FE00E94320D61E08AE00E94320DD7
:101CF000E091D702F091D80282E08083E091D30294
:101D0000F091D4021082E091D502F091D60287E6DC
:101D100080831092DF02E091DB02F091DC0286E02A
:101D20008083E091D902F091DA0280818061808322
:101D3000E091D902F091DA02808188608083E0919D
:101D4000D902F091DA02808180688083E091D90223
:101D5000F091DA0280818F7D80832FB7F894809193
:101D6000770290917802A0917902B0917A022FBF08
:101D7000813A9648A140B105C0F18BE092E0A0E025
:101D8000B0E019A2BE016F5D7F4F8C019D010F7005
:101D900011272227332714E0B695A79597958795A5
:101DA0001A95D1F7615071090A3014F4005D01C031
:101DB000095CFB0100830097A105B10531F76115AE
:101DC000710559F001900020E9F73197AF01461BEA
:101DD000570B87EC92E00E945C0642E050E066E61A
:101DE00071E087EC92E00E945C0610927B021092F8
:101DF000E6011092E5011092A4021092C602109220
:101E0000A20281E08093A10210927C0261E082E153
:101E10000E94320D61E083E10E94320D8091B90091
:101E20008E7F8093B9008091B9008D7F8093B90037
:101E300088E48093B80085E48093BC0089E596E04F
:101E40009093E4018093E3018AE596E09093E201A8
:101E50008093E1016FEF80E00E94D30C6FEF81E08F
:101E60000E94D30C11E0EE24EA94F5EEDF2EA5ECEF
:101E7000CA2E812C912C54018394F0E1FF1609F4B1
:101E800077C001E027E02F1508F000E08F2D877064
:101E9000782E80917B0280621093A3028093C5020A
:101EA0001092A4021092C602602F84E693E00E9472
:101EB0006C0881E00E94530C8091A2028111FCCF3A
:101EC00080917B021093A2021093A102E092A002E3
:101ED00010929F0210929E0210937D0290917D02BB
:101EE0008062880F892B80937D0280917C028130F3
:101EF00069F410927C0280917D028093BB008091F6
:101F0000BC0083FDF8CFC092BC0002C0D092BC00E0
:101F10008091A2028130E1F380919F02811103C080
:101F200090919F0201C091E0AEE7B2E0E7EEF1E0F0
:101F300080E0891721F02D9121938F5FFACF1092C5
:101F4000E6018093E50184E693E00E942308B50151
:101F5000A40104C0440F551F661F771F7A94D2F75F
:101F60004095642F6823802F0E94D30CF39485CF73
:101F700080E090E00E94AF0CF0928100109280000F
:101F800081E08093090288E890E0909308028093B2
:101F90000702909387008093860081E180938100FF
:101FA00061E089E00E94610D8091800080688093EB
:101FB00080002091070230910802AFEFB1E00E944B
:101FC000AC11DC01CB01EAE0B695A7959795879512
:101FD000EA95D1F790938900809388008091090257
:101FE00080618093810060E08FE00E94320D0E944A
:101FF000EF0C61E08FE00E94320D0E94EF0C0E9416
:10200000980921E04CE060E18FEF0E949F0882E098
:1020100080930E0282E790E090930D0280930C0271
:1020200062E083E00E94610D62E082E00E94610D47
:1020300010920B0210920A0287EA99E09093030132
:102040008093020180916900837F8860809369009A
:10205000E99A85E0E4E0F1E0DE01119601900D924D
:102060008A95E1F78E010F5F1F4FF12CF801619106
:102070008F0120E040E08F2D0E94EF08F394F5E0FF
:10208000FF12F4CF8FE18093720230E1732E43E0B0
:10209000E42EF12C54E0C52ED12C66246394AA249E
:1020A000A394B12C72E0872E912C80910F028111A4
:1020B000F3C0809110028111EFC00E9468078093E5
:1020C0000F02882319F0E8C0811104C187EC92E067
:1020D0000E94B706181619060CF0DBC087EC92E0D8
:1020E0000E9495068C018091750290917602823053
:1020F0009105F9F028F4009751F0019789F081C01B
:102100008330910519F1049709F44DC07AC00B3161
:10211000110509F07AC0B0927602A0927502B9C09A
:102120000B35110509F06DC0909276028092750210
:10213000B0C0C801C0970A9708F063C0005300936D
:102140007402F0927602E0927502A3C00A3411057F
:1021500039F4809174028230E9F40E94980934C005
:102160000D36110561F480917402853019F4609286
:1021700073022AC081110EC01092730225C0073469
:10218000110541F480917402882321F081508093DD
:1021900072021AC0C801C0970A9798F5D0927602C9
:1021A000C092750276C040ED400F0D361105C1F4A6
:1021B00080917402833069F4483030F4486021E043
:1021C00060E18FEF0E949F081092760210927502D4
:1021D00060C08130B1F44430B8F740937102F4CF5D
:1021E0000734110571F480917402880F982F990FAC
:1021F000990F890F8150480F413230F74093720296
:10220000E3CF1092760210927502809172020D3027
:10221000110521F4887F809372023BC00A301105BA
:1022200039F4803110F00E9486097092720231C038
:102230000830110569F4882361F18150809372029E
:10224000209171024091730260E20E94EF0821C068
:10225000803220F00E9486097092720250907102C2
:102260004090730210917202252D442D602F812F12
:102270000E94EF08E12FF0E0CF01880F991FE80FCF
:10228000F91FEF5EFD4F0083428251821F5F109362
:1022900072020E945E0709CF80911002882319F014
:1022A0001092100217C080910F02882319F010922B
:1022B0000F0202C00E94680787FF06CF982F9F7306
:1022C000906890931002682F62956695669563708A
:1022D000862F806C682F18160CF0F8CE87EC92E0F1
:1022E0000E94EF06F3CEE7ECF2E01382128288EE52
:1022F00093E0A0E0B0E084839583A683B78326E4CF
:1023000031E03183208325EC30E03587248724ECCD
:1023100030E03787268720EC30E0318B208B21ECB2
:1023200030E0338B228B22EC30E0358B248B26EC93
:1023300030E0378B268B118E128E138E148EE4E6CE
:10234000F3E01382128284839583A683B78388E5A2
:1023500091E0918380830895A29FB001B39FC00153
:10236000A39F700D811D1124911DB29F700D811DC1
:102370001124911D0895EE0FFF1F0590F491E02D9B
:10238000099481E090E0F8940C94C611F894FFCF82
:102390005B065B06726561647900100B110C2F00FF
:1023A00000000000000000000000000000000D0020
:1023B0000000000000000000000000000000000815
:1023C00000000000007F0A00150B000000001A004A
:1023D000001900000000EF065C0686063C07B70601
:1023E0009506A906000000006C083F089C08130829
:0A23F0003708230814080D0A000046
:107E0000112484B714BE81FFF0D085E080938100F7
:107E100082E08093C00088E18093C10086E0809377
:107E2000C20080E18093C4008EE0C9D0259A86E02C
:107E300020E33CEF91E0309385002093840096BBD3
:107E4000B09BFECF1D9AA8958150A9F7CC24DD24C4
:107E500088248394B5E0AB2EA1E19A2EF3E0BF2EE7
:107E6000A2D0813461F49FD0082FAFD0023811F036
:107E7000013811F484E001C083E08DD089C08234E0
:107E800011F484E103C0853419F485E0A6D080C0E4
:107E9000853579F488D0E82EFF2485D0082F10E0AE
:107EA000102F00270E291F29000F111F8ED06801E7
:107EB0006FC0863521F484E090D080E0DECF843638
:107EC00009F040C070D06FD0082F6DD080E0C81688
:107ED00080E7D80618F4F601B7BEE895C0E0D1E017
:107EE00062D089930C17E1F7F0E0CF16F0E7DF06D8
:107EF00018F0F601B7BEE89568D007B600FCFDCFD4
:107F0000A601A0E0B1E02C9130E011968C91119780
:107F100090E0982F8827822B932B1296FA010C0160
:107F200087BEE89511244E5F5F4FF1E0A038BF0790
:107F300051F7F601A7BEE89507B600FCFDCF97BE46
:107F4000E89526C08437B1F42ED02DD0F82E2BD052
:107F50003CD0F601EF2C8F010F5F1F4F84911BD097
:107F6000EA94F801C1F70894C11CD11CFA94CF0C13
:107F7000D11C0EC0853739F428D08EE10CD085E9AC
:107F80000AD08FE07ACF813511F488E018D01DD067
:107F900080E101D065CF982F8091C00085FFFCCF94
:107FA0009093C60008958091C00087FFFCCF809118
:107FB000C00084FD01C0A8958091C6000895E0E648
:107FC000F0E098E1908380830895EDDF803219F02E
:107FD00088E0F5DFFFCF84E1DECF1F93182FE3DFCA
:107FE0001150E9F7F2DF1F91089580E0E8DFEE27F6
:047FF000FF270994CA
:027FFE00040479
:0400000300007E007B
:00000001FF
